{
  "contractName": "NFTAirdrop",
  "abi": [
    {
      "inputs": [],
      "stateMutability": "nonpayable",
      "type": "constructor"
    },
    {
      "anonymous": false,
      "inputs": [
        {
          "indexed": true,
          "internalType": "address",
          "name": "owner",
          "type": "address"
        },
        {
          "indexed": true,
          "internalType": "address",
          "name": "approved",
          "type": "address"
        },
        {
          "indexed": true,
          "internalType": "uint256",
          "name": "tokenId",
          "type": "uint256"
        }
      ],
      "name": "Approval",
      "type": "event"
    },
    {
      "anonymous": false,
      "inputs": [
        {
          "indexed": true,
          "internalType": "address",
          "name": "owner",
          "type": "address"
        },
        {
          "indexed": true,
          "internalType": "address",
          "name": "operator",
          "type": "address"
        },
        {
          "indexed": false,
          "internalType": "bool",
          "name": "approved",
          "type": "bool"
        }
      ],
      "name": "ApprovalForAll",
      "type": "event"
    },
    {
      "anonymous": false,
      "inputs": [
        {
          "indexed": true,
          "internalType": "address",
          "name": "previousOwner",
          "type": "address"
        },
        {
          "indexed": true,
          "internalType": "address",
          "name": "newOwner",
          "type": "address"
        }
      ],
      "name": "OwnershipTransferred",
      "type": "event"
    },
    {
      "anonymous": false,
      "inputs": [
        {
          "indexed": true,
          "internalType": "address",
          "name": "from",
          "type": "address"
        },
        {
          "indexed": true,
          "internalType": "address",
          "name": "to",
          "type": "address"
        },
        {
          "indexed": true,
          "internalType": "uint256",
          "name": "tokenId",
          "type": "uint256"
        }
      ],
      "name": "Transfer",
      "type": "event"
    },
    {
      "stateMutability": "nonpayable",
      "type": "fallback"
    },
    {
      "inputs": [],
      "name": "MAX_AIRDROP_TOKENS",
      "outputs": [
        {
          "internalType": "uint256",
          "name": "",
          "type": "uint256"
        }
      ],
      "stateMutability": "view",
      "type": "function",
      "constant": true
    },
    {
      "inputs": [],
      "name": "MAX_SALE_TOKENS",
      "outputs": [
        {
          "internalType": "uint256",
          "name": "",
          "type": "uint256"
        }
      ],
      "stateMutability": "view",
      "type": "function",
      "constant": true
    },
    {
      "inputs": [],
      "name": "airdropEnd",
      "outputs": [
        {
          "internalType": "uint256",
          "name": "",
          "type": "uint256"
        }
      ],
      "stateMutability": "view",
      "type": "function",
      "constant": true
    },
    {
      "inputs": [],
      "name": "airdropStart",
      "outputs": [
        {
          "internalType": "uint256",
          "name": "",
          "type": "uint256"
        }
      ],
      "stateMutability": "view",
      "type": "function",
      "constant": true
    },
    {
      "inputs": [
        {
          "internalType": "address",
          "name": "to",
          "type": "address"
        },
        {
          "internalType": "uint256",
          "name": "tokenId",
          "type": "uint256"
        }
      ],
      "name": "approve",
      "outputs": [],
      "stateMutability": "nonpayable",
      "type": "function"
    },
    {
      "inputs": [
        {
          "internalType": "address",
          "name": "owner",
          "type": "address"
        }
      ],
      "name": "balanceOf",
      "outputs": [
        {
          "internalType": "uint256",
          "name": "",
          "type": "uint256"
        }
      ],
      "stateMutability": "view",
      "type": "function",
      "constant": true
    },
    {
      "inputs": [],
      "name": "baseURI",
      "outputs": [
        {
          "internalType": "string",
          "name": "",
          "type": "string"
        }
      ],
      "stateMutability": "view",
      "type": "function",
      "constant": true
    },
    {
      "inputs": [
        {
          "internalType": "uint256",
          "name": "tokenId",
          "type": "uint256"
        }
      ],
      "name": "getApproved",
      "outputs": [
        {
          "internalType": "address",
          "name": "",
          "type": "address"
        }
      ],
      "stateMutability": "view",
      "type": "function",
      "constant": true
    },
    {
      "inputs": [
        {
          "internalType": "address",
          "name": "owner",
          "type": "address"
        },
        {
          "internalType": "address",
          "name": "operator",
          "type": "address"
        }
      ],
      "name": "isApprovedForAll",
      "outputs": [
        {
          "internalType": "bool",
          "name": "",
          "type": "bool"
        }
      ],
      "stateMutability": "view",
      "type": "function",
      "constant": true
    },
    {
      "inputs": [],
      "name": "name",
      "outputs": [
        {
          "internalType": "string",
          "name": "",
          "type": "string"
        }
      ],
      "stateMutability": "view",
      "type": "function",
      "constant": true
    },
    {
      "inputs": [
        {
          "internalType": "uint256",
          "name": "",
          "type": "uint256"
        }
      ],
      "name": "nftOwners",
      "outputs": [
        {
          "internalType": "address",
          "name": "",
          "type": "address"
        }
      ],
      "stateMutability": "view",
      "type": "function",
      "constant": true
    },
    {
      "inputs": [
        {
          "internalType": "uint256",
          "name": "",
          "type": "uint256"
        }
      ],
      "name": "nfts",
      "outputs": [
        {
          "internalType": "uint8",
          "name": "purpose",
          "type": "uint8"
        },
        {
          "internalType": "uint256",
          "name": "claimed",
          "type": "uint256"
        },
        {
          "internalType": "uint256",
          "name": "id",
          "type": "uint256"
        },
        {
          "internalType": "string",
          "name": "title",
          "type": "string"
        },
        {
          "internalType": "address",
          "name": "owner",
          "type": "address"
        },
        {
          "internalType": "uint256",
          "name": "status",
          "type": "uint256"
        },
        {
          "internalType": "string",
          "name": "image",
          "type": "string"
        }
      ],
      "stateMutability": "view",
      "type": "function",
      "constant": true
    },
    {
      "inputs": [],
      "name": "nftsAirdrop",
      "outputs": [
        {
          "internalType": "uint256",
          "name": "",
          "type": "uint256"
        }
      ],
      "stateMutability": "view",
      "type": "function",
      "constant": true
    },
    {
      "inputs": [],
      "name": "nftsSale",
      "outputs": [
        {
          "internalType": "uint256",
          "name": "",
          "type": "uint256"
        }
      ],
      "stateMutability": "view",
      "type": "function",
      "constant": true
    },
    {
      "inputs": [],
      "name": "owner",
      "outputs": [
        {
          "internalType": "address",
          "name": "",
          "type": "address"
        }
      ],
      "stateMutability": "view",
      "type": "function",
      "constant": true
    },
    {
      "inputs": [
        {
          "internalType": "uint256",
          "name": "tokenId",
          "type": "uint256"
        }
      ],
      "name": "ownerOf",
      "outputs": [
        {
          "internalType": "address",
          "name": "",
          "type": "address"
        }
      ],
      "stateMutability": "view",
      "type": "function",
      "constant": true
    },
    {
      "inputs": [],
      "name": "price",
      "outputs": [
        {
          "internalType": "uint256",
          "name": "",
          "type": "uint256"
        }
      ],
      "stateMutability": "view",
      "type": "function",
      "constant": true
    },
    {
      "inputs": [],
      "name": "renounceOwnership",
      "outputs": [],
      "stateMutability": "nonpayable",
      "type": "function"
    },
    {
      "inputs": [
        {
          "internalType": "address",
          "name": "from",
          "type": "address"
        },
        {
          "internalType": "address",
          "name": "to",
          "type": "address"
        },
        {
          "internalType": "uint256",
          "name": "tokenId",
          "type": "uint256"
        }
      ],
      "name": "safeTransferFrom",
      "outputs": [],
      "stateMutability": "nonpayable",
      "type": "function"
    },
    {
      "inputs": [
        {
          "internalType": "address",
          "name": "from",
          "type": "address"
        },
        {
          "internalType": "address",
          "name": "to",
          "type": "address"
        },
        {
          "internalType": "uint256",
          "name": "tokenId",
          "type": "uint256"
        },
        {
          "internalType": "bytes",
          "name": "_data",
          "type": "bytes"
        }
      ],
      "name": "safeTransferFrom",
      "outputs": [],
      "stateMutability": "nonpayable",
      "type": "function"
    },
    {
      "inputs": [
        {
          "internalType": "address",
          "name": "operator",
          "type": "address"
        },
        {
          "internalType": "bool",
          "name": "approved",
          "type": "bool"
        }
      ],
      "name": "setApprovalForAll",
      "outputs": [],
      "stateMutability": "nonpayable",
      "type": "function"
    },
    {
      "inputs": [],
      "name": "symbol",
      "outputs": [
        {
          "internalType": "string",
          "name": "",
          "type": "string"
        }
      ],
      "stateMutability": "view",
      "type": "function",
      "constant": true
    },
    {
      "inputs": [
        {
          "internalType": "uint256",
          "name": "index",
          "type": "uint256"
        }
      ],
      "name": "tokenByIndex",
      "outputs": [
        {
          "internalType": "uint256",
          "name": "",
          "type": "uint256"
        }
      ],
      "stateMutability": "view",
      "type": "function",
      "constant": true
    },
    {
      "inputs": [
        {
          "internalType": "address",
          "name": "owner",
          "type": "address"
        },
        {
          "internalType": "uint256",
          "name": "index",
          "type": "uint256"
        }
      ],
      "name": "tokenOfOwnerByIndex",
      "outputs": [
        {
          "internalType": "uint256",
          "name": "",
          "type": "uint256"
        }
      ],
      "stateMutability": "view",
      "type": "function",
      "constant": true
    },
    {
      "inputs": [],
      "name": "totalSupply",
      "outputs": [
        {
          "internalType": "uint256",
          "name": "",
          "type": "uint256"
        }
      ],
      "stateMutability": "view",
      "type": "function",
      "constant": true
    },
    {
      "inputs": [
        {
          "internalType": "address",
          "name": "from",
          "type": "address"
        },
        {
          "internalType": "address",
          "name": "to",
          "type": "address"
        },
        {
          "internalType": "uint256",
          "name": "tokenId",
          "type": "uint256"
        }
      ],
      "name": "transferFrom",
      "outputs": [],
      "stateMutability": "nonpayable",
      "type": "function"
    },
    {
      "inputs": [
        {
          "internalType": "address",
          "name": "newOwner",
          "type": "address"
        }
      ],
      "name": "transferOwnership",
      "outputs": [],
      "stateMutability": "nonpayable",
      "type": "function"
    },
    {
      "stateMutability": "payable",
      "type": "receive",
      "payable": true
    },
    {
      "inputs": [
        {
          "internalType": "uint256",
          "name": "_newStart",
          "type": "uint256"
        }
      ],
      "name": "setAirdropStart",
      "outputs": [],
      "stateMutability": "nonpayable",
      "type": "function"
    },
    {
      "inputs": [
        {
          "internalType": "uint256",
          "name": "_newEnd",
          "type": "uint256"
        }
      ],
      "name": "setAirdropEnd",
      "outputs": [],
      "stateMutability": "nonpayable",
      "type": "function"
    },
    {
      "inputs": [
        {
          "internalType": "uint256",
          "name": "_newMax",
          "type": "uint256"
        }
      ],
      "name": "changeMaxAirdropTokens",
      "outputs": [],
      "stateMutability": "nonpayable",
      "type": "function"
    },
    {
      "inputs": [
        {
          "internalType": "uint256",
          "name": "_newMax",
          "type": "uint256"
        }
      ],
      "name": "changeMaxSaleTokens",
      "outputs": [],
      "stateMutability": "nonpayable",
      "type": "function"
    },
    {
      "inputs": [
        {
          "internalType": "uint256",
          "name": "_newPrice",
          "type": "uint256"
        }
      ],
      "name": "setPrice",
      "outputs": [],
      "stateMutability": "nonpayable",
      "type": "function"
    },
    {
      "inputs": [
        {
          "internalType": "uint8",
          "name": "_purpose",
          "type": "uint8"
        },
        {
          "internalType": "string",
          "name": "_title",
          "type": "string"
        },
        {
          "internalType": "string",
          "name": "_image",
          "type": "string"
        }
      ],
      "name": "mint",
      "outputs": [],
      "stateMutability": "payable",
      "type": "function",
      "payable": true
    },
    {
      "inputs": [
        {
          "internalType": "uint256",
          "name": "_tokenId",
          "type": "uint256"
        }
      ],
      "name": "claimNFTBought",
      "outputs": [],
      "stateMutability": "nonpayable",
      "type": "function"
    },
    {
      "inputs": [],
      "name": "allNfts",
      "outputs": [
        {
          "components": [
            {
              "internalType": "uint8",
              "name": "purpose",
              "type": "uint8"
            },
            {
              "internalType": "uint256",
              "name": "claimed",
              "type": "uint256"
            },
            {
              "internalType": "uint256",
              "name": "id",
              "type": "uint256"
            },
            {
              "internalType": "string",
              "name": "title",
              "type": "string"
            },
            {
              "internalType": "address",
              "name": "owner",
              "type": "address"
            },
            {
              "internalType": "uint256",
              "name": "status",
              "type": "uint256"
            },
            {
              "internalType": "string",
              "name": "image",
              "type": "string"
            }
          ],
          "internalType": "struct NFTAirdrop.Nft[]",
          "name": "",
          "type": "tuple[]"
        }
      ],
      "stateMutability": "view",
      "type": "function",
      "constant": true
    },
    {
      "inputs": [
        {
          "internalType": "string",
          "name": "baseURI_",
          "type": "string"
        }
      ],
      "name": "setBaseURI",
      "outputs": [],
      "stateMutability": "nonpayable",
      "type": "function"
    },
    {
      "inputs": [
        {
          "internalType": "uint256",
          "name": "tokenId",
          "type": "uint256"
        }
      ],
      "name": "tokenURI",
      "outputs": [
        {
          "internalType": "string",
          "name": "",
          "type": "string"
        }
      ],
      "stateMutability": "view",
      "type": "function",
      "constant": true
    },
    {
      "inputs": [
        {
          "internalType": "bytes4",
          "name": "interfaceId",
          "type": "bytes4"
        }
      ],
      "name": "supportsInterface",
      "outputs": [
        {
          "internalType": "bool",
          "name": "",
          "type": "bool"
        }
      ],
      "stateMutability": "view",
      "type": "function",
      "constant": true
    }
  ],
  "bytecode": "0x608060405263616be948600e556361374dca600f55670de0b6b3a76400006012556040518060400160405280601c81526020017f68747470733a2f2f7473756e616d69617661782e636f6d2f6e66742f00000000815250601390805190602001906200006d9291906200021b565b5060056014556113836015553480156200008657600080fd5b506040518060400160405280600781526020017f5473756e616d69000000000000000000000000000000000000000000000000008152506040518060400160405280600381526020017f54534d000000000000000000000000000000000000000000000000000000000081525081600090805190602001906200010b9291906200021b565b508060019080519060200190620001249291906200021b565b505050620001476200013b6200014d60201b60201c565b6200015560201b60201c565b62000330565b600033905090565b6000600660009054906101000a900473ffffffffffffffffffffffffffffffffffffffff16905081600660006101000a81548173ffffffffffffffffffffffffffffffffffffffff021916908373ffffffffffffffffffffffffffffffffffffffff1602179055508173ffffffffffffffffffffffffffffffffffffffff168173ffffffffffffffffffffffffffffffffffffffff167f8be0079c531659141344cd1fd0a4f28419497f9722a3daafe3b4186f6b6457e060405160405180910390a35050565b8280546200022990620002cb565b90600052602060002090601f0160209004810192826200024d576000855562000299565b82601f106200026857805160ff191683800117855562000299565b8280016001018555821562000299579182015b82811115620002985782518255916020019190600101906200027b565b5b509050620002a89190620002ac565b5090565b5b80821115620002c7576000816000905550600101620002ad565b5090565b60006002820490506001821680620002e457607f821691505b60208210811415620002fb57620002fa62000301565b5b50919050565b7f4e487b7100000000000000000000000000000000000000000000000000000000600052602260045260246000fd5b61577a80620003406000396000f3fe6080604052600436106102295760003560e01c806370a0823111610123578063b664aedd116100ab578063e985e9c51161006f578063e985e9c514610839578063ef2cc97714610876578063f29e51e6146108a1578063f2b8aa6f146108ca578063f2fde38b146108f557610230565b8063b664aedd14610742578063b88d4fde1461076d578063bbd94c2f14610796578063c1d86ba9146107d3578063c87b56dd146107fc57610230565b806391b7f5ed116100f257806391b7f5ed1461066f57806395d89b4114610698578063a035b1fe146106c3578063a22cb465146106ee578063a4a5412e1461071757610230565b806370a08231146105c7578063715018a6146106045780638da5cb5b1461061b5780638f0e3b071461064657610230565b80632b9fce47116101b157806354a33d921161017557806354a33d92146104e257806355f804b31461050d5780636352211e146105365780636c0360eb146105735780636de805411461059e57610230565b80632b9fce47146103eb5780632f745c591461041657806333c665531461045357806342842e0e1461047c5780634f6ccce7146104a557610230565b80630fe3152e116101f85780630fe3152e1461030d57806318160ddd146103385780631f0e2c721461036357806323b872dd1461037f578063265aa621146103a857610230565b806301ffc9a71461023f57806306fdde031461027c578063081812fc146102a7578063095ea7b3146102e457610230565b3661023057005b34801561023c57600080fd5b50005b34801561024b57600080fd5b5061026660048036038101906102619190613d96565b61091e565b6040516102739190614634565b60405180910390f35b34801561028857600080fd5b50610291610930565b60405161029e919061464f565b60405180910390f35b3480156102b357600080fd5b506102ce60048036038101906102c99190613e39565b6109c2565b6040516102db91906145ab565b60405180910390f35b3480156102f057600080fd5b5061030b60048036038101906103069190613d56565b610a47565b005b34801561031957600080fd5b50610322610b5f565b60405161032f9190614a11565b60405180910390f35b34801561034457600080fd5b5061034d610b65565b60405161035a9190614a11565b60405180910390f35b61037d60048036038101906103789190613e66565b610b72565b005b34801561038b57600080fd5b506103a660048036038101906103a19190613c40565b610ee1565b005b3480156103b457600080fd5b506103cf60048036038101906103ca9190613e39565b610f41565b6040516103e29796959493929190614a2c565b60405180910390f35b3480156103f757600080fd5b506104006110d0565b60405161040d9190614a11565b60405180910390f35b34801561042257600080fd5b5061043d60048036038101906104389190613d56565b6110d6565b60405161044a9190614a11565b60405180910390f35b34801561045f57600080fd5b5061047a60048036038101906104759190613e39565b61117b565b005b34801561048857600080fd5b506104a3600480360381019061049e9190613c40565b611321565b005b3480156104b157600080fd5b506104cc60048036038101906104c79190613e39565b611341565b6040516104d99190614a11565b60405180910390f35b3480156104ee57600080fd5b506104f76113b2565b6040516105049190614a11565b60405180910390f35b34801561051957600080fd5b50610534600480360381019061052f9190613df0565b6113b8565b005b34801561054257600080fd5b5061055d60048036038101906105589190613e39565b61144e565b60405161056a91906145ab565b60405180910390f35b34801561057f57600080fd5b50610588611500565b604051610595919061464f565b60405180910390f35b3480156105aa57600080fd5b506105c560048036038101906105c09190613e39565b61158e565b005b3480156105d357600080fd5b506105ee60048036038101906105e99190613bd3565b611614565b6040516105fb9190614a11565b60405180910390f35b34801561061057600080fd5b506106196116cc565b005b34801561062757600080fd5b50610630611754565b60405161063d91906145ab565b60405180910390f35b34801561065257600080fd5b5061066d60048036038101906106689190613e39565b61177e565b005b34801561067b57600080fd5b5061069660048036038101906106919190613e39565b611804565b005b3480156106a457600080fd5b506106ad61188a565b6040516106ba919061464f565b60405180910390f35b3480156106cf57600080fd5b506106d861191c565b6040516106e59190614a11565b60405180910390f35b3480156106fa57600080fd5b5061071560048036038101906107109190613d16565b611922565b005b34801561072357600080fd5b5061072c611aa3565b6040516107399190614a11565b60405180910390f35b34801561074e57600080fd5b50610757611aa9565b6040516107649190614a11565b60405180910390f35b34801561077957600080fd5b50610794600480360381019061078f9190613c93565b611aaf565b005b3480156107a257600080fd5b506107bd60048036038101906107b89190613e39565b611b11565b6040516107ca91906145ab565b60405180910390f35b3480156107df57600080fd5b506107fa60048036038101906107f59190613e39565b611b44565b005b34801561080857600080fd5b50610823600480360381019061081e9190613e39565b611bca565b604051610830919061464f565b60405180910390f35b34801561084557600080fd5b50610860600480360381019061085b9190613c00565b611c71565b60405161086d9190614634565b60405180910390f35b34801561088257600080fd5b5061088b611d05565b6040516108989190614a11565b60405180910390f35b3480156108ad57600080fd5b506108c860048036038101906108c39190613e39565b611d0b565b005b3480156108d657600080fd5b506108df611d91565b6040516108ec9190614612565b60405180910390f35b34801561090157600080fd5b5061091c60048036038101906109179190613bd3565b611fa5565b005b60006109298261209d565b9050919050565b60606000805461093f90614d3b565b80601f016020809104026020016040519081016040528092919081815260200182805461096b90614d3b565b80156109b85780601f1061098d576101008083540402835291602001916109b8565b820191906000526020600020905b81548152906001019060200180831161099b57829003601f168201915b5050505050905090565b60006109cd82612117565b610a0c576040517f08c379a0000000000000000000000000000000000000000000000000000000008152600401610a0390614871565b60405180910390fd5b6004600083815260200190815260200160002060009054906101000a900473ffffffffffffffffffffffffffffffffffffffff169050919050565b6000610a528261144e565b90508073ffffffffffffffffffffffffffffffffffffffff168373ffffffffffffffffffffffffffffffffffffffff161415610ac3576040517f08c379a0000000000000000000000000000000000000000000000000000000008152600401610aba90614931565b60405180910390fd5b8073ffffffffffffffffffffffffffffffffffffffff16610ae2612183565b73ffffffffffffffffffffffffffffffffffffffff161480610b115750610b1081610b0b612183565b611c71565b5b610b50576040517f08c379a0000000000000000000000000000000000000000000000000000000008152600401610b47906147b1565b60405180910390fd5b610b5a838361218b565b505050565b600e5481565b6000600980549050905090565b60008360ff161415610bd6576014546001601054610b909190614bbd565b1115610bd1576040517f08c379a0000000000000000000000000000000000000000000000000000000008152600401610bc8906149b1565b60405180910390fd5b610c2a565b6015546001601154610be89190614bbd565b1115610c29576040517f08c379a0000000000000000000000000000000000000000000000000000000008152600401610c2090614851565b60405180910390fd5b5b600f54421015610c6f576040517f08c379a0000000000000000000000000000000000000000000000000000000008152600401610c66906148f1565b60405180910390fd5b600e544210610cb3576040517f08c379a0000000000000000000000000000000000000000000000000000000008152600401610caa906149d1565b60405180910390fd5b60018360ff161480610cc8575060008360ff16145b610d07576040517f08c379a0000000000000000000000000000000000000000000000000000000008152600401610cfe90614911565b60405180910390fd5b60008360ff1614610d2e5760116000815480929190610d2590614d9e565b91905055610d46565b60106000815480929190610d4190614d9e565b919050555b5060006040518060e001604052808560ff168152602001600081526020016001600c80549050610d769190614bbd565b81526020018481526020013373ffffffffffffffffffffffffffffffffffffffff16815260200160008152602001838152509050600c81908060018154018082558091505060019003906000526020600020906007020160009091909190915060008201518160000160006101000a81548160ff021916908360ff16021790555060208201518160010155604082015181600201556060820151816003019080519060200190610e279291906139d2565b5060808201518160040160006101000a81548173ffffffffffffffffffffffffffffffffffffffff021916908373ffffffffffffffffffffffffffffffffffffffff16021790555060a0820151816005015560c0820151816006019080519060200190610e959291906139d2565b505050610eae610ea3611754565b600c80549050612244565b60008460ff1614610ecc57610ec7600c80549050612262565b610edb565b610eda600c8054905061269d565b5b50505050565b610ef2610eec612183565b82612a35565b610f31576040517f08c379a0000000000000000000000000000000000000000000000000000000008152600401610f2890614971565b60405180910390fd5b610f3c838383612b13565b505050565b600c8181548110610f5157600080fd5b90600052602060002090600702016000915090508060000160009054906101000a900460ff1690806001015490806002015490806003018054610f9390614d3b565b80601f0160208091040260200160405190810160405280929190818152602001828054610fbf90614d3b565b801561100c5780601f10610fe15761010080835404028352916020019161100c565b820191906000526020600020905b815481529060010190602001808311610fef57829003601f168201915b5050505050908060040160009054906101000a900473ffffffffffffffffffffffffffffffffffffffff169080600501549080600601805461104d90614d3b565b80601f016020809104026020016040519081016040528092919081815260200182805461107990614d3b565b80156110c65780601f1061109b576101008083540402835291602001916110c6565b820191906000526020600020905b8154815290600101906020018083116110a957829003601f168201915b5050505050905087565b600f5481565b60006110e183611614565b8210611122576040517f08c379a000000000000000000000000000000000000000000000000000000000815260040161111990614691565b60405180910390fd5b600760008473ffffffffffffffffffffffffffffffffffffffff1673ffffffffffffffffffffffffffffffffffffffff168152602001908152602001600020600083815260200190815260200160002054905092915050565b600d600082815260200190815260200160002060009054906101000a900473ffffffffffffffffffffffffffffffffffffffff1673ffffffffffffffffffffffffffffffffffffffff163373ffffffffffffffffffffffffffffffffffffffff161461121c576040517f08c379a000000000000000000000000000000000000000000000000000000000815260040161121390614951565b60405180910390fd5b600e54421015611261576040517f08c379a000000000000000000000000000000000000000000000000000000000815260040161125890614811565b60405180910390fd5b6000600c6001836112729190614c44565b8154811061128357611282614ed4565b5b906000526020600020906007020160010154146112d5576040517f08c379a00000000000000000000000000000000000000000000000000000000081526004016112cc90614791565b60405180910390fd5b6112e76112e0611754565b3383612b13565b6001600c6001836112f89190614c44565b8154811061130957611308614ed4565b5b90600052602060002090600702016001018190555050565b61133c83838360405180602001604052806000815250611aaf565b505050565b600061134b610b65565b821061138c576040517f08c379a000000000000000000000000000000000000000000000000000000000815260040161138390614991565b60405180910390fd5b600982815481106113a05761139f614ed4565b5b90600052602060002001549050919050565b60155481565b6113c0612183565b73ffffffffffffffffffffffffffffffffffffffff166113de611754565b73ffffffffffffffffffffffffffffffffffffffff1614611434576040517f08c379a000000000000000000000000000000000000000000000000000000000815260040161142b90614891565b60405180910390fd5b806013908051906020019061144a9291906139d2565b5050565b6000806002600084815260200190815260200160002060009054906101000a900473ffffffffffffffffffffffffffffffffffffffff169050600073ffffffffffffffffffffffffffffffffffffffff168173ffffffffffffffffffffffffffffffffffffffff1614156114f7576040517f08c379a00000000000000000000000000000000000000000000000000000000081526004016114ee906147f1565b60405180910390fd5b80915050919050565b6013805461150d90614d3b565b80601f016020809104026020016040519081016040528092919081815260200182805461153990614d3b565b80156115865780601f1061155b57610100808354040283529160200191611586565b820191906000526020600020905b81548152906001019060200180831161156957829003601f168201915b505050505081565b611596612183565b73ffffffffffffffffffffffffffffffffffffffff166115b4611754565b73ffffffffffffffffffffffffffffffffffffffff161461160a576040517f08c379a000000000000000000000000000000000000000000000000000000000815260040161160190614891565b60405180910390fd5b80600f8190555050565b60008073ffffffffffffffffffffffffffffffffffffffff168273ffffffffffffffffffffffffffffffffffffffff161415611685576040517f08c379a000000000000000000000000000000000000000000000000000000000815260040161167c906147d1565b60405180910390fd5b600360008373ffffffffffffffffffffffffffffffffffffffff1673ffffffffffffffffffffffffffffffffffffffff168152602001908152602001600020549050919050565b6116d4612183565b73ffffffffffffffffffffffffffffffffffffffff166116f2611754565b73ffffffffffffffffffffffffffffffffffffffff1614611748576040517f08c379a000000000000000000000000000000000000000000000000000000000815260040161173f90614891565b60405180910390fd5b6117526000612d6f565b565b6000600660009054906101000a900473ffffffffffffffffffffffffffffffffffffffff16905090565b611786612183565b73ffffffffffffffffffffffffffffffffffffffff166117a4611754565b73ffffffffffffffffffffffffffffffffffffffff16146117fa576040517f08c379a00000000000000000000000000000000000000000000000000000000081526004016117f190614891565b60405180910390fd5b8060148190555050565b61180c612183565b73ffffffffffffffffffffffffffffffffffffffff1661182a611754565b73ffffffffffffffffffffffffffffffffffffffff1614611880576040517f08c379a000000000000000000000000000000000000000000000000000000000815260040161187790614891565b60405180910390fd5b8060128190555050565b60606001805461189990614d3b565b80601f01602080910402602001604051908101604052809291908181526020018280546118c590614d3b565b80156119125780601f106118e757610100808354040283529160200191611912565b820191906000526020600020905b8154815290600101906020018083116118f557829003601f168201915b5050505050905090565b60125481565b61192a612183565b73ffffffffffffffffffffffffffffffffffffffff168273ffffffffffffffffffffffffffffffffffffffff161415611998576040517f08c379a000000000000000000000000000000000000000000000000000000000815260040161198f90614731565b60405180910390fd5b80600560006119a5612183565b73ffffffffffffffffffffffffffffffffffffffff1673ffffffffffffffffffffffffffffffffffffffff16815260200190815260200160002060008473ffffffffffffffffffffffffffffffffffffffff1673ffffffffffffffffffffffffffffffffffffffff16815260200190815260200160002060006101000a81548160ff0219169083151502179055508173ffffffffffffffffffffffffffffffffffffffff16611a52612183565b73ffffffffffffffffffffffffffffffffffffffff167f17307eab39ab6107e8899845ad3d59bd9653f200f220920489ca2b5937696c3183604051611a979190614634565b60405180910390a35050565b60105481565b60115481565b611ac0611aba612183565b83612a35565b611aff576040517f08c379a0000000000000000000000000000000000000000000000000000000008152600401611af690614971565b60405180910390fd5b611b0b84848484612e35565b50505050565b600d6020528060005260406000206000915054906101000a900473ffffffffffffffffffffffffffffffffffffffff1681565b611b4c612183565b73ffffffffffffffffffffffffffffffffffffffff16611b6a611754565b73ffffffffffffffffffffffffffffffffffffffff1614611bc0576040517f08c379a0000000000000000000000000000000000000000000000000000000008152600401611bb790614891565b60405180910390fd5b8060158190555050565b6060611bd582612117565b611c14576040517f08c379a0000000000000000000000000000000000000000000000000000000008152600401611c0b906148d1565b60405180910390fd5b6000611c1e612e91565b90506000815111611c3e5760405180602001604052806000815250611c69565b80611c4884612f23565b604051602001611c5992919061457c565b6040516020818303038152906040525b915050919050565b6000600560008473ffffffffffffffffffffffffffffffffffffffff1673ffffffffffffffffffffffffffffffffffffffff16815260200190815260200160002060008373ffffffffffffffffffffffffffffffffffffffff1673ffffffffffffffffffffffffffffffffffffffff16815260200190815260200160002060009054906101000a900460ff16905092915050565b60145481565b611d13612183565b73ffffffffffffffffffffffffffffffffffffffff16611d31611754565b73ffffffffffffffffffffffffffffffffffffffff1614611d87576040517f08c379a0000000000000000000000000000000000000000000000000000000008152600401611d7e90614891565b60405180910390fd5b80600e8190555050565b6060600c805480602002602001604051908101604052809291908181526020016000905b82821015611f9c57838290600052602060002090600702016040518060e00160405290816000820160009054906101000a900460ff1660ff1660ff1681526020016001820154815260200160028201548152602001600382018054611e1990614d3b565b80601f0160208091040260200160405190810160405280929190818152602001828054611e4590614d3b565b8015611e925780601f10611e6757610100808354040283529160200191611e92565b820191906000526020600020905b815481529060010190602001808311611e7557829003601f168201915b505050505081526020016004820160009054906101000a900473ffffffffffffffffffffffffffffffffffffffff1673ffffffffffffffffffffffffffffffffffffffff1673ffffffffffffffffffffffffffffffffffffffff16815260200160058201548152602001600682018054611f0b90614d3b565b80601f0160208091040260200160405190810160405280929190818152602001828054611f3790614d3b565b8015611f845780601f10611f5957610100808354040283529160200191611f84565b820191906000526020600020905b815481529060010190602001808311611f6757829003601f168201915b50505050508152505081526020019060010190611db5565b50505050905090565b611fad612183565b73ffffffffffffffffffffffffffffffffffffffff16611fcb611754565b73ffffffffffffffffffffffffffffffffffffffff1614612021576040517f08c379a000000000000000000000000000000000000000000000000000000000815260040161201890614891565b60405180910390fd5b600073ffffffffffffffffffffffffffffffffffffffff168173ffffffffffffffffffffffffffffffffffffffff161415612091576040517f08c379a0000000000000000000000000000000000000000000000000000000008152600401612088906146d1565b60405180910390fd5b61209a81612d6f565b50565b60007f780e9d63000000000000000000000000000000000000000000000000000000007bffffffffffffffffffffffffffffffffffffffffffffffffffffffff1916827bffffffffffffffffffffffffffffffffffffffffffffffffffffffff19161480612110575061210f82613084565b5b9050919050565b60008073ffffffffffffffffffffffffffffffffffffffff166002600084815260200190815260200160002060009054906101000a900473ffffffffffffffffffffffffffffffffffffffff1673ffffffffffffffffffffffffffffffffffffffff1614159050919050565b600033905090565b816004600083815260200190815260200160002060006101000a81548173ffffffffffffffffffffffffffffffffffffffff021916908373ffffffffffffffffffffffffffffffffffffffff160217905550808273ffffffffffffffffffffffffffffffffffffffff166121fe8361144e565b73ffffffffffffffffffffffffffffffffffffffff167f8c5be1e5ebec7d5bd14f71427d1e84f3dd0314c0f7b2291e5b200ac8c7c3b92560405160405180910390a45050565b61225e828260405180602001604052806000815250613166565b5050565b6000600c6001836122739190614c44565b8154811061228457612283614ed4565b5b90600052602060002090600702016040518060e00160405290816000820160009054906101000a900460ff1660ff1660ff16815260200160018201548152602001600282015481526020016003820180546122de90614d3b565b80601f016020809104026020016040519081016040528092919081815260200182805461230a90614d3b565b80156123575780601f1061232c57610100808354040283529160200191612357565b820191906000526020600020905b81548152906001019060200180831161233a57829003601f168201915b505050505081526020016004820160009054906101000a900473ffffffffffffffffffffffffffffffffffffffff1673ffffffffffffffffffffffffffffffffffffffff1673ffffffffffffffffffffffffffffffffffffffff168152602001600582015481526020016006820180546123d090614d3b565b80601f01602080910402602001604051908101604052809291908181526020018280546123fc90614d3b565b80156124495780601f1061241e57610100808354040283529160200191612449565b820191906000526020600020905b81548152906001019060200180831161242c57829003601f168201915b505050505081525050905060008160a001511461249b576040517f08c379a000000000000000000000000000000000000000000000000000000000815260040161249290614791565b60405180910390fd5b6001816000015160ff16146124e5576040517f08c379a00000000000000000000000000000000000000000000000000000000081526004016124dc90614751565b60405180910390fd5b6000339050601254341115612549578073ffffffffffffffffffffffffffffffffffffffff166108fc6012543461251c9190614c44565b9081150290604051600060405180830381858888f19350505050158015612547573d6000803e3d6000fd5b505b6000612553611754565b90508073ffffffffffffffffffffffffffffffffffffffff166108fc6012549081150290604051600060405180830381858888f1935050505015801561259d573d6000803e3d6000fd5b5033600d600086815260200190815260200160002060006101000a81548173ffffffffffffffffffffffffffffffffffffffff021916908373ffffffffffffffffffffffffffffffffffffffff16021790555033600c6001866126009190614c44565b8154811061261157612610614ed4565b5b906000526020600020906007020160040160006101000a81548173ffffffffffffffffffffffffffffffffffffffff021916908373ffffffffffffffffffffffffffffffffffffffff1602179055506001600c6001866126719190614c44565b8154811061268257612681614ed4565b5b90600052602060002090600702016005018190555050505050565b6000600c6001836126ae9190614c44565b815481106126bf576126be614ed4565b5b90600052602060002090600702016040518060e00160405290816000820160009054906101000a900460ff1660ff1660ff168152602001600182015481526020016002820154815260200160038201805461271990614d3b565b80601f016020809104026020016040519081016040528092919081815260200182805461274590614d3b565b80156127925780601f1061276757610100808354040283529160200191612792565b820191906000526020600020905b81548152906001019060200180831161277557829003601f168201915b505050505081526020016004820160009054906101000a900473ffffffffffffffffffffffffffffffffffffffff1673ffffffffffffffffffffffffffffffffffffffff1673ffffffffffffffffffffffffffffffffffffffff1681526020016005820154815260200160068201805461280b90614d3b565b80601f016020809104026020016040519081016040528092919081815260200182805461283790614d3b565b80156128845780601f1061285957610100808354040283529160200191612884565b820191906000526020600020905b81548152906001019060200180831161286757829003601f168201915b505050505081525050905060008160a00151146128d6576040517f08c379a00000000000000000000000000000000000000000000000000000000081526004016128cd906149f1565b60405180910390fd5b60008160000151905060008160ff1614612925576040517f08c379a000000000000000000000000000000000000000000000000000000000815260040161291c90614671565b60405180910390fd5b612937612930611754565b3385612b13565b33600d600085815260200190815260200160002060006101000a81548173ffffffffffffffffffffffffffffffffffffffff021916908373ffffffffffffffffffffffffffffffffffffffff16021790555033600c6001856129999190614c44565b815481106129aa576129a9614ed4565b5b906000526020600020906007020160040160006101000a81548173ffffffffffffffffffffffffffffffffffffffff021916908373ffffffffffffffffffffffffffffffffffffffff1602179055506001600c600185612a0a9190614c44565b81548110612a1b57612a1a614ed4565b5b906000526020600020906007020160050181905550505050565b6000612a4082612117565b612a7f576040517f08c379a0000000000000000000000000000000000000000000000000000000008152600401612a7690614771565b60405180910390fd5b6000612a8a8361144e565b90508073ffffffffffffffffffffffffffffffffffffffff168473ffffffffffffffffffffffffffffffffffffffff161480612af957508373ffffffffffffffffffffffffffffffffffffffff16612ae1846109c2565b73ffffffffffffffffffffffffffffffffffffffff16145b80612b0a5750612b098185611c71565b5b91505092915050565b8273ffffffffffffffffffffffffffffffffffffffff16612b338261144e565b73ffffffffffffffffffffffffffffffffffffffff1614612b89576040517f08c379a0000000000000000000000000000000000000000000000000000000008152600401612b80906148b1565b60405180910390fd5b600073ffffffffffffffffffffffffffffffffffffffff168273ffffffffffffffffffffffffffffffffffffffff161415612bf9576040517f08c379a0000000000000000000000000000000000000000000000000000000008152600401612bf090614711565b60405180910390fd5b612c048383836131c1565b612c0f60008261218b565b6001600360008573ffffffffffffffffffffffffffffffffffffffff1673ffffffffffffffffffffffffffffffffffffffff1681526020019081526020016000206000828254612c5f9190614c44565b925050819055506001600360008473ffffffffffffffffffffffffffffffffffffffff1673ffffffffffffffffffffffffffffffffffffffff1681526020019081526020016000206000828254612cb69190614bbd565b92505081905550816002600083815260200190815260200160002060006101000a81548173ffffffffffffffffffffffffffffffffffffffff021916908373ffffffffffffffffffffffffffffffffffffffff160217905550808273ffffffffffffffffffffffffffffffffffffffff168473ffffffffffffffffffffffffffffffffffffffff167fddf252ad1be2c89b69c2b068fc378daa952ba7f163c4a11628f55a4df523b3ef60405160405180910390a4505050565b6000600660009054906101000a900473ffffffffffffffffffffffffffffffffffffffff16905081600660006101000a81548173ffffffffffffffffffffffffffffffffffffffff021916908373ffffffffffffffffffffffffffffffffffffffff1602179055508173ffffffffffffffffffffffffffffffffffffffff168173ffffffffffffffffffffffffffffffffffffffff167f8be0079c531659141344cd1fd0a4f28419497f9722a3daafe3b4186f6b6457e060405160405180910390a35050565b612e40848484612b13565b612e4c848484846131d1565b612e8b576040517f08c379a0000000000000000000000000000000000000000000000000000000008152600401612e82906146b1565b60405180910390fd5b50505050565b606060138054612ea090614d3b565b80601f0160208091040260200160405190810160405280929190818152602001828054612ecc90614d3b565b8015612f195780601f10612eee57610100808354040283529160200191612f19565b820191906000526020600020905b815481529060010190602001808311612efc57829003601f168201915b5050505050905090565b60606000821415612f6b576040518060400160405280600181526020017f3000000000000000000000000000000000000000000000000000000000000000815250905061307f565b600082905060005b60008214612f9d578080612f8690614d9e565b915050600a82612f969190614c13565b9150612f73565b60008167ffffffffffffffff811115612fb957612fb8614f03565b5b6040519080825280601f01601f191660200182016040528015612feb5781602001600182028036833780820191505090505b5090505b60008514613078576001826130049190614c44565b9150600a856130139190614de7565b603061301f9190614bbd565b60f81b81838151811061303557613034614ed4565b5b60200101907effffffffffffffffffffffffffffffffffffffffffffffffffffffffffffff1916908160001a905350600a856130719190614c13565b9450612fef565b8093505050505b919050565b60007f80ac58cd000000000000000000000000000000000000000000000000000000007bffffffffffffffffffffffffffffffffffffffffffffffffffffffff1916827bffffffffffffffffffffffffffffffffffffffffffffffffffffffff1916148061314f57507f5b5e139f000000000000000000000000000000000000000000000000000000007bffffffffffffffffffffffffffffffffffffffffffffffffffffffff1916827bffffffffffffffffffffffffffffffffffffffffffffffffffffffff1916145b8061315f575061315e82613368565b5b9050919050565b61317083836133d2565b61317d60008484846131d1565b6131bc576040517f08c379a00000000000000000000000000000000000000000000000000000000081526004016131b3906146b1565b60405180910390fd5b505050565b6131cc8383836135a0565b505050565b60006131f28473ffffffffffffffffffffffffffffffffffffffff166136b4565b1561335b578373ffffffffffffffffffffffffffffffffffffffff1663150b7a0261321b612183565b8786866040518563ffffffff1660e01b815260040161323d94939291906145c6565b602060405180830381600087803b15801561325757600080fd5b505af192505050801561328857506040513d601f19601f820116820180604052508101906132859190613dc3565b60015b61330b573d80600081146132b8576040519150601f19603f3d011682016040523d82523d6000602084013e6132bd565b606091505b50600081511415613303576040517f08c379a00000000000000000000000000000000000000000000000000000000081526004016132fa906146b1565b60405180910390fd5b805181602001fd5b63150b7a0260e01b7bffffffffffffffffffffffffffffffffffffffffffffffffffffffff1916817bffffffffffffffffffffffffffffffffffffffffffffffffffffffff191614915050613360565b600190505b949350505050565b60007f01ffc9a7000000000000000000000000000000000000000000000000000000007bffffffffffffffffffffffffffffffffffffffffffffffffffffffff1916827bffffffffffffffffffffffffffffffffffffffffffffffffffffffff1916149050919050565b600073ffffffffffffffffffffffffffffffffffffffff168273ffffffffffffffffffffffffffffffffffffffff161415613442576040517f08c379a000000000000000000000000000000000000000000000000000000000815260040161343990614831565b60405180910390fd5b61344b81612117565b1561348b576040517f08c379a0000000000000000000000000000000000000000000000000000000008152600401613482906146f1565b60405180910390fd5b613497600083836131c1565b6001600360008473ffffffffffffffffffffffffffffffffffffffff1673ffffffffffffffffffffffffffffffffffffffff16815260200190815260200160002060008282546134e79190614bbd565b92505081905550816002600083815260200190815260200160002060006101000a81548173ffffffffffffffffffffffffffffffffffffffff021916908373ffffffffffffffffffffffffffffffffffffffff160217905550808273ffffffffffffffffffffffffffffffffffffffff16600073ffffffffffffffffffffffffffffffffffffffff167fddf252ad1be2c89b69c2b068fc378daa952ba7f163c4a11628f55a4df523b3ef60405160405180910390a45050565b6135ab8383836136c7565b600073ffffffffffffffffffffffffffffffffffffffff168373ffffffffffffffffffffffffffffffffffffffff1614156135ee576135e9816136cc565b61362d565b8173ffffffffffffffffffffffffffffffffffffffff168373ffffffffffffffffffffffffffffffffffffffff161461362c5761362b8382613715565b5b5b600073ffffffffffffffffffffffffffffffffffffffff168273ffffffffffffffffffffffffffffffffffffffff1614156136705761366b81613882565b6136af565b8273ffffffffffffffffffffffffffffffffffffffff168273ffffffffffffffffffffffffffffffffffffffff16146136ae576136ad8282613953565b5b5b505050565b600080823b905060008111915050919050565b505050565b600980549050600a600083815260200190815260200160002081905550600981908060018154018082558091505060019003906000526020600020016000909190919091505550565b6000600161372284611614565b61372c9190614c44565b9050600060086000848152602001908152602001600020549050818114613811576000600760008673ffffffffffffffffffffffffffffffffffffffff1673ffffffffffffffffffffffffffffffffffffffff168152602001908152602001600020600084815260200190815260200160002054905080600760008773ffffffffffffffffffffffffffffffffffffffff1673ffffffffffffffffffffffffffffffffffffffff168152602001908152602001600020600084815260200190815260200160002081905550816008600083815260200190815260200160002081905550505b6008600084815260200190815260200160002060009055600760008573ffffffffffffffffffffffffffffffffffffffff1673ffffffffffffffffffffffffffffffffffffffff16815260200190815260200160002060008381526020019081526020016000206000905550505050565b600060016009805490506138969190614c44565b90506000600a60008481526020019081526020016000205490506000600983815481106138c6576138c5614ed4565b5b9060005260206000200154905080600983815481106138e8576138e7614ed4565b5b906000526020600020018190555081600a600083815260200190815260200160002081905550600a600085815260200190815260200160002060009055600980548061393757613936614ea5565b5b6001900381819060005260206000200160009055905550505050565b600061395e83611614565b905081600760008573ffffffffffffffffffffffffffffffffffffffff1673ffffffffffffffffffffffffffffffffffffffff168152602001908152602001600020600083815260200190815260200160002081905550806008600084815260200190815260200160002081905550505050565b8280546139de90614d3b565b90600052602060002090601f016020900481019282613a005760008555613a47565b82601f10613a1957805160ff1916838001178555613a47565b82800160010185558215613a47579182015b82811115613a46578251825591602001919060010190613a2b565b5b509050613a549190613a58565b5090565b5b80821115613a71576000816000905550600101613a59565b5090565b6000613a88613a8384614ace565b614aa9565b905082815260208101848484011115613aa457613aa3614f37565b5b613aaf848285614cf9565b509392505050565b6000613aca613ac584614aff565b614aa9565b905082815260208101848484011115613ae657613ae5614f37565b5b613af1848285614cf9565b509392505050565b600081359050613b08816156d1565b92915050565b600081359050613b1d816156e8565b92915050565b600081359050613b32816156ff565b92915050565b600081519050613b47816156ff565b92915050565b600082601f830112613b6257613b61614f32565b5b8135613b72848260208601613a75565b91505092915050565b600082601f830112613b9057613b8f614f32565b5b8135613ba0848260208601613ab7565b91505092915050565b600081359050613bb881615716565b92915050565b600081359050613bcd8161572d565b92915050565b600060208284031215613be957613be8614f41565b5b6000613bf784828501613af9565b91505092915050565b60008060408385031215613c1757613c16614f41565b5b6000613c2585828601613af9565b9250506020613c3685828601613af9565b9150509250929050565b600080600060608486031215613c5957613c58614f41565b5b6000613c6786828701613af9565b9350506020613c7886828701613af9565b9250506040613c8986828701613ba9565b9150509250925092565b60008060008060808587031215613cad57613cac614f41565b5b6000613cbb87828801613af9565b9450506020613ccc87828801613af9565b9350506040613cdd87828801613ba9565b925050606085013567ffffffffffffffff811115613cfe57613cfd614f3c565b5b613d0a87828801613b4d565b91505092959194509250565b60008060408385031215613d2d57613d2c614f41565b5b6000613d3b85828601613af9565b9250506020613d4c85828601613b0e565b9150509250929050565b60008060408385031215613d6d57613d6c614f41565b5b6000613d7b85828601613af9565b9250506020613d8c85828601613ba9565b9150509250929050565b600060208284031215613dac57613dab614f41565b5b6000613dba84828501613b23565b91505092915050565b600060208284031215613dd957613dd8614f41565b5b6000613de784828501613b38565b91505092915050565b600060208284031215613e0657613e05614f41565b5b600082013567ffffffffffffffff811115613e2457613e23614f3c565b5b613e3084828501613b7b565b91505092915050565b600060208284031215613e4f57613e4e614f41565b5b6000613e5d84828501613ba9565b91505092915050565b600080600060608486031215613e7f57613e7e614f41565b5b6000613e8d86828701613bbe565b935050602084013567ffffffffffffffff811115613eae57613ead614f3c565b5b613eba86828701613b7b565b925050604084013567ffffffffffffffff811115613edb57613eda614f3c565b5b613ee786828701613b7b565b9150509250925092565b6000613efd838361449d565b905092915050565b613f0e81614c78565b82525050565b613f1d81614c78565b82525050565b6000613f2e82614b40565b613f388185614b6e565b935083602082028501613f4a85614b30565b8060005b85811015613f865784840389528151613f678582613ef1565b9450613f7283614b61565b925060208a01995050600181019050613f4e565b50829750879550505050505092915050565b613fa181614c8a565b82525050565b6000613fb282614b4b565b613fbc8185614b7f565b9350613fcc818560208601614d08565b613fd581614f46565b840191505092915050565b6000613feb82614b56565b613ff58185614b90565b9350614005818560208601614d08565b61400e81614f46565b840191505092915050565b600061402482614b56565b61402e8185614ba1565b935061403e818560208601614d08565b61404781614f46565b840191505092915050565b600061405d82614b56565b6140678185614bb2565b9350614077818560208601614d08565b80840191505092915050565b6000614090602283614ba1565b915061409b82614f57565b604082019050919050565b60006140b3602b83614ba1565b91506140be82614fa6565b604082019050919050565b60006140d6603283614ba1565b91506140e182614ff5565b604082019050919050565b60006140f9602683614ba1565b915061410482615044565b604082019050919050565b600061411c601c83614ba1565b915061412782615093565b602082019050919050565b600061413f602483614ba1565b915061414a826150bc565b604082019050919050565b6000614162601983614ba1565b915061416d8261510b565b602082019050919050565b6000614185602083614ba1565b915061419082615134565b602082019050919050565b60006141a8602c83614ba1565b91506141b38261515d565b604082019050919050565b60006141cb601a83614ba1565b91506141d6826151ac565b602082019050919050565b60006141ee603883614ba1565b91506141f9826151d5565b604082019050919050565b6000614211602a83614ba1565b915061421c82615224565b604082019050919050565b6000614234602983614ba1565b915061423f82615273565b604082019050919050565b6000614257602683614ba1565b9150614262826152c2565b604082019050919050565b600061427a602083614ba1565b915061428582615311565b602082019050919050565b600061429d602883614ba1565b91506142a88261533a565b604082019050919050565b60006142c0602c83614ba1565b91506142cb82615389565b604082019050919050565b60006142e3600583614bb2565b91506142ee826153d8565b600582019050919050565b6000614306602083614ba1565b915061431182615401565b602082019050919050565b6000614329602983614ba1565b91506143348261542a565b604082019050919050565b600061434c602f83614ba1565b915061435782615479565b604082019050919050565b600061436f601d83614ba1565b915061437a826154c8565b602082019050919050565b6000614392601983614ba1565b915061439d826154f1565b602082019050919050565b60006143b5602183614ba1565b91506143c08261551a565b604082019050919050565b60006143d8601d83614ba1565b91506143e382615569565b602082019050919050565b60006143fb603183614ba1565b915061440682615592565b604082019050919050565b600061441e602c83614ba1565b9150614429826155e1565b604082019050919050565b6000614441602b83614ba1565b915061444c82615630565b604082019050919050565b6000614464601a83614ba1565b915061446f8261567f565b602082019050919050565b6000614487601a83614ba1565b9150614492826156a8565b602082019050919050565b600060e0830160008301516144b5600086018261455e565b5060208301516144c86020860182614540565b5060408301516144db6040860182614540565b50606083015184820360608601526144f38282613fe0565b91505060808301516145086080860182613f05565b5060a083015161451b60a0860182614540565b5060c083015184820360c08601526145338282613fe0565b9150508091505092915050565b61454981614ce2565b82525050565b61455881614ce2565b82525050565b61456781614cec565b82525050565b61457681614cec565b82525050565b60006145888285614052565b91506145948284614052565b915061459f826142d6565b91508190509392505050565b60006020820190506145c06000830184613f14565b92915050565b60006080820190506145db6000830187613f14565b6145e86020830186613f14565b6145f5604083018561454f565b81810360608301526146078184613fa7565b905095945050505050565b6000602082019050818103600083015261462c8184613f23565b905092915050565b60006020820190506146496000830184613f98565b92915050565b600060208201905081810360008301526146698184614019565b905092915050565b6000602082019050818103600083015261468a81614083565b9050919050565b600060208201905081810360008301526146aa816140a6565b9050919050565b600060208201905081810360008301526146ca816140c9565b9050919050565b600060208201905081810360008301526146ea816140ec565b9050919050565b6000602082019050818103600083015261470a8161410f565b9050919050565b6000602082019050818103600083015261472a81614132565b9050919050565b6000602082019050818103600083015261474a81614155565b9050919050565b6000602082019050818103600083015261476a81614178565b9050919050565b6000602082019050818103600083015261478a8161419b565b9050919050565b600060208201905081810360008301526147aa816141be565b9050919050565b600060208201905081810360008301526147ca816141e1565b9050919050565b600060208201905081810360008301526147ea81614204565b9050919050565b6000602082019050818103600083015261480a81614227565b9050919050565b6000602082019050818103600083015261482a8161424a565b9050919050565b6000602082019050818103600083015261484a8161426d565b9050919050565b6000602082019050818103600083015261486a81614290565b9050919050565b6000602082019050818103600083015261488a816142b3565b9050919050565b600060208201905081810360008301526148aa816142f9565b9050919050565b600060208201905081810360008301526148ca8161431c565b9050919050565b600060208201905081810360008301526148ea8161433f565b9050919050565b6000602082019050818103600083015261490a81614362565b9050919050565b6000602082019050818103600083015261492a81614385565b9050919050565b6000602082019050818103600083015261494a816143a8565b9050919050565b6000602082019050818103600083015261496a816143cb565b9050919050565b6000602082019050818103600083015261498a816143ee565b9050919050565b600060208201905081810360008301526149aa81614411565b9050919050565b600060208201905081810360008301526149ca81614434565b9050919050565b600060208201905081810360008301526149ea81614457565b9050919050565b60006020820190508181036000830152614a0a8161447a565b9050919050565b6000602082019050614a26600083018461454f565b92915050565b600060e082019050614a41600083018a61456d565b614a4e602083018961454f565b614a5b604083018861454f565b8181036060830152614a6d8187614019565b9050614a7c6080830186613f14565b614a8960a083018561454f565b81810360c0830152614a9b8184614019565b905098975050505050505050565b6000614ab3614ac4565b9050614abf8282614d6d565b919050565b6000604051905090565b600067ffffffffffffffff821115614ae957614ae8614f03565b5b614af282614f46565b9050602081019050919050565b600067ffffffffffffffff821115614b1a57614b19614f03565b5b614b2382614f46565b9050602081019050919050565b6000819050602082019050919050565b600081519050919050565b600081519050919050565b600081519050919050565b6000602082019050919050565b600082825260208201905092915050565b600082825260208201905092915050565b600082825260208201905092915050565b600082825260208201905092915050565b600081905092915050565b6000614bc882614ce2565b9150614bd383614ce2565b9250827fffffffffffffffffffffffffffffffffffffffffffffffffffffffffffffffff03821115614c0857614c07614e18565b5b828201905092915050565b6000614c1e82614ce2565b9150614c2983614ce2565b925082614c3957614c38614e47565b5b828204905092915050565b6000614c4f82614ce2565b9150614c5a83614ce2565b925082821015614c6d57614c6c614e18565b5b828203905092915050565b6000614c8382614cc2565b9050919050565b60008115159050919050565b60007fffffffff0000000000000000000000000000000000000000000000000000000082169050919050565b600073ffffffffffffffffffffffffffffffffffffffff82169050919050565b6000819050919050565b600060ff82169050919050565b82818337600083830152505050565b60005b83811015614d26578082015181840152602081019050614d0b565b83811115614d35576000848401525b50505050565b60006002820490506001821680614d5357607f821691505b60208210811415614d6757614d66614e76565b5b50919050565b614d7682614f46565b810181811067ffffffffffffffff82111715614d9557614d94614f03565b5b80604052505050565b6000614da982614ce2565b91507fffffffffffffffffffffffffffffffffffffffffffffffffffffffffffffffff821415614ddc57614ddb614e18565b5b600182019050919050565b6000614df282614ce2565b9150614dfd83614ce2565b925082614e0d57614e0c614e47565b5b828206905092915050565b7f4e487b7100000000000000000000000000000000000000000000000000000000600052601160045260246000fd5b7f4e487b7100000000000000000000000000000000000000000000000000000000600052601260045260246000fd5b7f4e487b7100000000000000000000000000000000000000000000000000000000600052602260045260246000fd5b7f4e487b7100000000000000000000000000000000000000000000000000000000600052603160045260246000fd5b7f4e487b7100000000000000000000000000000000000000000000000000000000600052603260045260246000fd5b7f4e487b7100000000000000000000000000000000000000000000000000000000600052604160045260246000fd5b600080fd5b600080fd5b600080fd5b600080fd5b6000601f19601f8301169050919050565b7f546865206e6674206973206e6f742070617274206f662074686520616972647260008201527f6f70000000000000000000000000000000000000000000000000000000000000602082015250565b7f455243373231456e756d657261626c653a206f776e657220696e646578206f7560008201527f74206f6620626f756e6473000000000000000000000000000000000000000000602082015250565b7f4552433732313a207472616e7366657220746f206e6f6e20455243373231526560008201527f63656976657220696d706c656d656e7465720000000000000000000000000000602082015250565b7f4f776e61626c653a206e6577206f776e657220697320746865207a65726f206160008201527f6464726573730000000000000000000000000000000000000000000000000000602082015250565b7f4552433732313a20746f6b656e20616c7265616479206d696e74656400000000600082015250565b7f4552433732313a207472616e7366657220746f20746865207a65726f2061646460008201527f7265737300000000000000000000000000000000000000000000000000000000602082015250565b7f4552433732313a20617070726f766520746f2063616c6c657200000000000000600082015250565b7f546865206e6674206973206e6f742070617274206f66207468652073616c652e600082015250565b7f4552433732313a206f70657261746f7220717565727920666f72206e6f6e657860008201527f697374656e7420746f6b656e0000000000000000000000000000000000000000602082015250565b7f546865204e465420697320616c726561647920626f756768742e000000000000600082015250565b7f4552433732313a20617070726f76652063616c6c6572206973206e6f74206f7760008201527f6e6572206e6f7220617070726f76656420666f7220616c6c0000000000000000602082015250565b7f4552433732313a2062616c616e636520717565727920666f7220746865207a6560008201527f726f206164647265737300000000000000000000000000000000000000000000602082015250565b7f4552433732313a206f776e657220717565727920666f72206e6f6e657869737460008201527f656e7420746f6b656e0000000000000000000000000000000000000000000000602082015250565b7f5468652041697264726f702f53616c6520686173206e6f742066696e6973686560008201527f64207965742e0000000000000000000000000000000000000000000000000000602082015250565b7f4552433732313a206d696e7420746f20746865207a65726f2061646472657373600082015250565b7f546865206d6178696d756d2073616c6520746f6b656e7320686176652062656560008201527f6e206d696e746564000000000000000000000000000000000000000000000000602082015250565b7f4552433732313a20617070726f76656420717565727920666f72206e6f6e657860008201527f697374656e7420746f6b656e0000000000000000000000000000000000000000602082015250565b7f2e6a736f6e000000000000000000000000000000000000000000000000000000600082015250565b7f4f776e61626c653a2063616c6c6572206973206e6f7420746865206f776e6572600082015250565b7f4552433732313a207472616e73666572206f6620746f6b656e2074686174206960008201527f73206e6f74206f776e0000000000000000000000000000000000000000000000602082015250565b7f4552433732314d657461646174613a2055524920717565727920666f72206e6f60008201527f6e6578697374656e7420746f6b656e0000000000000000000000000000000000602082015250565b7f41697264726f702f53616c6520686173206e6f7420737461727465642e000000600082015250565b7f54686520707572706f7365206973206e6f742031206f72203000000000000000600082015250565b7f4552433732313a20617070726f76616c20746f2063757272656e74206f776e6560008201527f7200000000000000000000000000000000000000000000000000000000000000602082015250565b7f596f752068617665206e6f7420626f756768742074686973204e46542e000000600082015250565b7f4552433732313a207472616e736665722063616c6c6572206973206e6f74206f60008201527f776e6572206e6f7220617070726f766564000000000000000000000000000000602082015250565b7f455243373231456e756d657261626c653a20676c6f62616c20696e646578206f60008201527f7574206f6620626f756e64730000000000000000000000000000000000000000602082015250565b7f546865206d6178696d756d2061697264726f7020746f6b656e7320686176652060008201527f6265656e206d696e746564000000000000000000000000000000000000000000602082015250565b7f41697264726f702f53616c65206861732066696e69736865642e000000000000600082015250565b7f546865204e465420697320616c726561647920636c61696d6564000000000000600082015250565b6156da81614c78565b81146156e557600080fd5b50565b6156f181614c8a565b81146156fc57600080fd5b50565b61570881614c96565b811461571357600080fd5b50565b61571f81614ce2565b811461572a57600080fd5b50565b61573681614cec565b811461574157600080fd5b5056fea26469706673582212202ad4cf8d48c5d1e2fda08bbdf2ee0b8c1a971734415d522993f662396006243864736f6c63430008070033",
  "immutableReferences": {},
  "source": "// SPDX-License-Identifier: UNLICENSED\npragma solidity ^0.8.0;\n\nimport \"@openzeppelin/contracts/token/ERC721/ERC721.sol\";\nimport \"@openzeppelin/contracts/access/Ownable.sol\";\nimport \"@openzeppelin/contracts/token/ERC721/extensions/ERC721Enumerable.sol\";\nimport \"@openzeppelin/contracts/token/ERC721/extensions/ERC721URIStorage.sol\";\nimport \"@openzeppelin/contracts/utils/Strings.sol\";\n\ncontract NFTAirdrop is ERC721, Ownable, ERC721Enumerable, ERC721URIStorage {\n\n  using Strings for uint256;\n\n  Nft[] public nfts;\n  mapping(uint => address) public nftOwners;\n  uint public airdropEnd = 1634462024;\n  uint public airdropStart = 1631014346;\n  uint public nftsAirdrop;\n  uint public nftsSale;\n  uint public price = 1000000000000000000;\n  string public baseURI = \"https://tsunamiavax.com/nft/\";\n\n  uint public MAX_AIRDROP_TOKENS = 5;\n  uint public MAX_SALE_TOKENS = 4995;\n\n  struct Nft {\n    uint8 purpose; // 0 for airdrop, 1 for sale\n    uint claimed; // 0 not claimed, 1 claimed\n    uint256 id;\n    string title;\n    address owner;\n    uint status; // 0 for open 1 for taken\n    string image;\n  }\n\n\n  constructor() ERC721(\"Tsunami\", \"TSM\") {\n\n  }\n\n  function setAirdropStart(uint _newStart) public onlyOwner {\n    airdropStart = _newStart;\n  }\n\n  function setAirdropEnd(uint _newEnd) public onlyOwner {\n    airdropEnd = _newEnd;\n  }\n\n\n  function changeMaxAirdropTokens(uint _newMax) public onlyOwner {\n    MAX_AIRDROP_TOKENS = _newMax;\n  }\n\n  function changeMaxSaleTokens(uint _newMax) public onlyOwner {\n    MAX_SALE_TOKENS = _newMax;\n  }\n\n  function setPrice(uint _newPrice) public onlyOwner {\n    price = _newPrice;\n  }\n\n  function mint(uint8 _purpose, string memory _title, string memory _image) public payable {\n    if (_purpose == 0) {\n      require((nftsAirdrop + 1) <= MAX_AIRDROP_TOKENS, \"The maximum airdrop tokens have been minted\");\n    } else {\n      require((nftsSale + 1) <= MAX_SALE_TOKENS, \"The maximum sale tokens have been minted\");\n    }\n    require(block.timestamp >= airdropStart, \"Airdrop/Sale has not started.\");\n    require(block.timestamp < airdropEnd, \"Airdrop/Sale has finished.\");\n    require(_purpose == 1 || _purpose == 0, \"The purpose is not 1 or 0\");\n    (_purpose == 0) ? nftsAirdrop++ : nftsSale++;\n    Nft memory newNft = Nft(_purpose, 0, nfts.length+1, _title, msg.sender, 0, _image);\n    nfts.push(newNft);\n    _safeMint(owner(), nfts.length);\n    (_purpose == 0) ? _claimNft(nfts.length) : _buyNft(nfts.length);\n  }\n\n  function _claimNft(uint _tokenId) private {\n    Nft memory nft = nfts[_tokenId-1];\n    require(nft.status == 0, \"The NFT is already claimed\");\n    uint8 purpose = nft.purpose;\n    require(purpose == 0, \"The nft is not part of the airdrop\");\n\n    // transfer ownership of art\n    _transfer(owner(), msg.sender, _tokenId);\n    nftOwners[_tokenId] = msg.sender;\n    nfts[_tokenId-1].owner = msg.sender;\n    nfts[_tokenId-1].status = 1; // NFT is sold.\n\n  }\n\n  function _buyNft(uint _tokenId) private {\n    Nft memory nft = nfts[_tokenId-1];\n    require(nft.status == 0, \"The NFT is already bought.\");    \n    require(nft.purpose == 1, \"The nft is not part of the sale.\");\n    //return extra payment\n    address payable sender = payable(msg.sender);\n    if(msg.value > price) sender.transfer(msg.value - price);\n    //make a payment\n    address payable own = payable(owner());\n    own.transfer(price);\n\n    nftOwners[_tokenId] = msg.sender;\n    nfts[_tokenId-1].owner = msg.sender;\n    nfts[_tokenId-1].status = 1; // NFT is sold\n\n  }\n\n  function claimNFTBought(uint _tokenId) public {\n    require(msg.sender == nftOwners[_tokenId], \"You have not bought this NFT.\");\n    require(block.timestamp >= airdropEnd, \"The Airdrop/Sale has not finished yet.\");\n    require(nfts[_tokenId-1].claimed == 0, \"The NFT is already bought.\");\n\n    //transfer ownership of art\n    _transfer(owner(), msg.sender, _tokenId);\n    nfts[_tokenId-1].claimed = 1; // nft is claimed\n  }\n\n  function allNfts() public view returns(Nft[] memory) {\n    return nfts;\n  }\n  function _beforeTokenTransfer(address from, address to, uint256 tokenId)\n      internal\n      override(ERC721, ERC721Enumerable)\n  {\n      super._beforeTokenTransfer(from, to, tokenId);\n  }\n\n  function _burn(uint256 tokenId) internal override(ERC721, ERC721URIStorage) {\n      super._burn(tokenId);\n  }\n\n  function setBaseURI(string memory baseURI_) public onlyOwner {\n      baseURI = baseURI_;\n  }\n\n  function _baseURI() internal view override returns (string memory) {\n      return baseURI;\n  }\n\n  function tokenURI(uint256 tokenId)\n      public\n      view\n      override(ERC721, ERC721URIStorage)\n      returns (string memory)\n  {\n    require(\n      _exists(tokenId),\n      \"ERC721Metadata: URI query for nonexistent token\"\n    );\n\n    string memory currentBaseURI = _baseURI();\n    return bytes(currentBaseURI).length > 0\n        ? string(abi.encodePacked(currentBaseURI, tokenId.toString(), \".json\"))\n        : \"\";\n  }\n\n  function supportsInterface(bytes4 interfaceId)\n      public\n      view\n      override(ERC721, ERC721Enumerable)\n      returns (bool)\n  {\n      return super.supportsInterface(interfaceId);\n  }\n\n  receive () payable external {}\n\n  fallback () external {}\n\n}",
  "sourcePath": "/Users/israeladelaja/Desktop/NFTAirdrop/contracts/NFTAirdrop.sol",
  "compiler": {
    "name": "solc",
    "version": "0.8.7+commit.e28d00a7.Emscripten.clang"
  },
  "schemaVersion": "3.4.2",
  "updatedAt": "2021-09-17T09:48:47.700Z",
  "networkType": "ethereum",
  "devdoc": {
    "kind": "dev",
    "methods": {
      "approve(address,uint256)": {
        "details": "See {IERC721-approve}."
      },
      "balanceOf(address)": {
        "details": "See {IERC721-balanceOf}."
      },
      "getApproved(uint256)": {
        "details": "See {IERC721-getApproved}."
      },
      "isApprovedForAll(address,address)": {
        "details": "See {IERC721-isApprovedForAll}."
      },
      "name()": {
        "details": "See {IERC721Metadata-name}."
      },
      "owner()": {
        "details": "Returns the address of the current owner."
      },
      "ownerOf(uint256)": {
        "details": "See {IERC721-ownerOf}."
      },
      "renounceOwnership()": {
        "details": "Leaves the contract without owner. It will not be possible to call `onlyOwner` functions anymore. Can only be called by the current owner. NOTE: Renouncing ownership will leave the contract without an owner, thereby removing any functionality that is only available to the owner."
      },
      "safeTransferFrom(address,address,uint256)": {
        "details": "See {IERC721-safeTransferFrom}."
      },
      "safeTransferFrom(address,address,uint256,bytes)": {
        "details": "See {IERC721-safeTransferFrom}."
      },
      "setApprovalForAll(address,bool)": {
        "details": "See {IERC721-setApprovalForAll}."
      },
      "symbol()": {
        "details": "See {IERC721Metadata-symbol}."
      },
      "tokenByIndex(uint256)": {
        "details": "See {IERC721Enumerable-tokenByIndex}."
      },
      "tokenOfOwnerByIndex(address,uint256)": {
        "details": "See {IERC721Enumerable-tokenOfOwnerByIndex}."
      },
      "totalSupply()": {
        "details": "See {IERC721Enumerable-totalSupply}."
      },
      "transferFrom(address,address,uint256)": {
        "details": "See {IERC721-transferFrom}."
      },
      "transferOwnership(address)": {
        "details": "Transfers ownership of the contract to a new account (`newOwner`). Can only be called by the current owner."
      }
    },
    "version": 1
  },
  "userdoc": {
    "kind": "user",
    "methods": {},
    "version": 1
  }
}