{
  "contractName": "ProductBuy",
  "abi": [
    {
      "inputs": [
        {
          "internalType": "address",
          "name": "_tokenAddress",
          "type": "address"
        },
        {
          "internalType": "uint256",
          "name": "_taxTolerance",
          "type": "uint256"
        }
      ],
      "stateMutability": "nonpayable",
      "type": "constructor"
    },
    {
      "anonymous": false,
      "inputs": [
        {
          "indexed": true,
          "internalType": "address",
          "name": "previousOwner",
          "type": "address"
        },
        {
          "indexed": true,
          "internalType": "address",
          "name": "newOwner",
          "type": "address"
        }
      ],
      "name": "OwnershipTransferred",
      "type": "event"
    },
    {
      "inputs": [],
      "name": "owner",
      "outputs": [
        {
          "internalType": "address",
          "name": "",
          "type": "address"
        }
      ],
      "stateMutability": "view",
      "type": "function",
      "constant": true
    },
    {
      "inputs": [],
      "name": "renounceOwnership",
      "outputs": [],
      "stateMutability": "nonpayable",
      "type": "function"
    },
    {
      "inputs": [],
      "name": "taxTolerance",
      "outputs": [
        {
          "internalType": "uint256",
          "name": "",
          "type": "uint256"
        }
      ],
      "stateMutability": "view",
      "type": "function",
      "constant": true
    },
    {
      "inputs": [],
      "name": "token",
      "outputs": [
        {
          "internalType": "contract ERC20",
          "name": "",
          "type": "address"
        }
      ],
      "stateMutability": "view",
      "type": "function",
      "constant": true
    },
    {
      "inputs": [
        {
          "internalType": "address",
          "name": "newOwner",
          "type": "address"
        }
      ],
      "name": "transferOwnership",
      "outputs": [],
      "stateMutability": "nonpayable",
      "type": "function"
    },
    {
      "inputs": [
        {
          "internalType": "address",
          "name": "_newToken",
          "type": "address"
        }
      ],
      "name": "changeToken",
      "outputs": [],
      "stateMutability": "nonpayable",
      "type": "function"
    },
    {
      "inputs": [
        {
          "internalType": "string",
          "name": "_productName",
          "type": "string"
        },
        {
          "internalType": "string",
          "name": "_productLink",
          "type": "string"
        },
        {
          "internalType": "uint256",
          "name": "_productPrice",
          "type": "uint256"
        }
      ],
      "name": "listProduct",
      "outputs": [],
      "stateMutability": "nonpayable",
      "type": "function"
    },
    {
      "inputs": [
        {
          "internalType": "uint256",
          "name": "productId",
          "type": "uint256"
        }
      ],
      "name": "buyProduct",
      "outputs": [],
      "stateMutability": "nonpayable",
      "type": "function"
    },
    {
      "inputs": [],
      "name": "viewProducts",
      "outputs": [
        {
          "components": [
            {
              "internalType": "string",
              "name": "productName",
              "type": "string"
            },
            {
              "internalType": "uint256",
              "name": "productPrice",
              "type": "uint256"
            },
            {
              "internalType": "uint256",
              "name": "productId",
              "type": "uint256"
            },
            {
              "internalType": "address",
              "name": "productSeller",
              "type": "address"
            }
          ],
          "internalType": "struct ProductBuy.ProductInfo[]",
          "name": "",
          "type": "tuple[]"
        }
      ],
      "stateMutability": "view",
      "type": "function",
      "constant": true
    },
    {
      "inputs": [
        {
          "internalType": "uint256",
          "name": "_newTaxTolerance",
          "type": "uint256"
        }
      ],
      "name": "setTaxTolerance",
      "outputs": [],
      "stateMutability": "nonpayable",
      "type": "function"
    },
    {
      "inputs": [],
      "name": "getBoughtProducts",
      "outputs": [
        {
          "components": [
            {
              "internalType": "string",
              "name": "productName",
              "type": "string"
            },
            {
              "internalType": "uint256",
              "name": "productPrice",
              "type": "uint256"
            },
            {
              "internalType": "uint256",
              "name": "productId",
              "type": "uint256"
            },
            {
              "internalType": "string",
              "name": "productLink",
              "type": "string"
            }
          ],
          "internalType": "struct ProductBuy.BoughtProduct[]",
          "name": "",
          "type": "tuple[]"
        }
      ],
      "stateMutability": "view",
      "type": "function",
      "constant": true
    },
    {
      "inputs": [],
      "name": "getProductStatuses",
      "outputs": [
        {
          "internalType": "enum ProductBuy.ProductStatus[]",
          "name": "",
          "type": "uint8[]"
        }
      ],
      "stateMutability": "view",
      "type": "function",
      "constant": true
    }
  ],
  "bytecode": "0x60806040523480156200001157600080fd5b5060405162001fb738038062001fb78339818101604052810190620000379190620001a1565b620000576200004b620000a760201b60201c565b620000af60201b60201c565b81600160006101000a81548173ffffffffffffffffffffffffffffffffffffffff021916908373ffffffffffffffffffffffffffffffffffffffff1602179055508060028190555050506200025f565b600033905090565b60008060009054906101000a900473ffffffffffffffffffffffffffffffffffffffff169050816000806101000a81548173ffffffffffffffffffffffffffffffffffffffff021916908373ffffffffffffffffffffffffffffffffffffffff1602179055508173ffffffffffffffffffffffffffffffffffffffff168173ffffffffffffffffffffffffffffffffffffffff167f8be0079c531659141344cd1fd0a4f28419497f9722a3daafe3b4186f6b6457e060405160405180910390a35050565b60008151905062000184816200022b565b92915050565b6000815190506200019b8162000245565b92915050565b60008060408385031215620001bb57620001ba62000226565b5b6000620001cb8582860162000173565b9250506020620001de858286016200018a565b9150509250929050565b6000620001f582620001fc565b9050919050565b600073ffffffffffffffffffffffffffffffffffffffff82169050919050565b6000819050919050565b600080fd5b6200023681620001e8565b81146200024257600080fd5b50565b62000250816200021c565b81146200025c57600080fd5b50565b611d48806200026f6000396000f3fe608060405234801561001057600080fd5b50600436106100b45760003560e01c80638ddddf04116100715780638ddddf0414610151578063c5173fd81461016f578063d37078731461018d578063f2fde38b146101ab578063f9f24da1146101c7578063fc0c546a146101e5576100b4565b806324f7a0be146100b957806366829b16146100d55780636d6b7777146100f1578063715018a61461010d5780638642269e146101175780638da5cb5b14610133575b600080fd5b6100d360048036038101906100ce919061137d565b610203565b005b6100ef60048036038101906100ea9190611298565b610289565b005b61010b600480360381019061010691906112f2565b6102cd565b005b61011561055d565b005b610131600480360381019061012c919061137d565b6105e5565b005b61013b610af1565b60405161014891906116fb565b60405180910390f35b610159610b1a565b604051610166919061174d565b60405180910390f35b610177610c27565b604051610184919061176f565b60405180910390f35b610195610dfb565b6040516101a2919061182e565b60405180910390f35b6101c560048036038101906101c09190611298565b610e01565b005b6101cf610ef9565b6040516101dc9190611791565b60405180910390f35b6101ed611054565b6040516101fa91906117b3565b60405180910390f35b61020b61107a565b73ffffffffffffffffffffffffffffffffffffffff16610229610af1565b73ffffffffffffffffffffffffffffffffffffffff161461027f576040517f08c379a00000000000000000000000000000000000000000000000000000000081526004016102769061180e565b60405180910390fd5b8060028190555050565b80600160006101000a81548173ffffffffffffffffffffffffffffffffffffffff021916908373ffffffffffffffffffffffffffffffffffffffff16021790555050565b60006040518060e0016040528085815260200184815260200183815260200160058054905081526020013373ffffffffffffffffffffffffffffffffffffffff1681526020013373ffffffffffffffffffffffffffffffffffffffff1681526020016000600181111561034357610342611b37565b5b81525090506000604051806080016040528086815260200184815260200160058054905081526020013373ffffffffffffffffffffffffffffffffffffffff1681525090508160036000600580549050815260200190815260200160002060008201518160000190805190602001906103bd929190611146565b5060208201518160010190805190602001906103da929190611146565b50604082015181600201556060820151816003015560808201518160040160006101000a81548173ffffffffffffffffffffffffffffffffffffffff021916908373ffffffffffffffffffffffffffffffffffffffff16021790555060a08201518160050160006101000a81548173ffffffffffffffffffffffffffffffffffffffff021916908373ffffffffffffffffffffffffffffffffffffffff16021790555060c08201518160050160146101000a81548160ff021916908360018111156104a8576104a7611b37565b5b0217905550905050600581908060018154018082558091505060019003906000526020600020906004020160009091909190915060008201518160000190805190602001906104f8929190611146565b50602082015181600101556040820151816002015560608201518160030160006101000a81548173ffffffffffffffffffffffffffffffffffffffff021916908373ffffffffffffffffffffffffffffffffffffffff16021790555050505050505050565b61056561107a565b73ffffffffffffffffffffffffffffffffffffffff16610583610af1565b73ffffffffffffffffffffffffffffffffffffffff16146105d9576040517f08c379a00000000000000000000000000000000000000000000000000000000081526004016105d09061180e565b60405180910390fd5b6105e36000611082565b565b600060018111156105f9576105f8611b37565b5b6003600083815260200190815260200160002060050160149054906101000a900460ff16600181111561062f5761062e611b37565b5b1461066f576040517f08c379a0000000000000000000000000000000000000000000000000000000008152600401610666906117ee565b60405180910390fd5b6000600360008381526020019081526020016000206040518060e001604052908160008201805461069f90611a5c565b80601f01602080910402602001604051908101604052809291908181526020018280546106cb90611a5c565b80156107185780601f106106ed57610100808354040283529160200191610718565b820191906000526020600020905b8154815290600101906020018083116106fb57829003601f168201915b5050505050815260200160018201805461073190611a5c565b80601f016020809104026020016040519081016040528092919081815260200182805461075d90611a5c565b80156107aa5780601f1061077f576101008083540402835291602001916107aa565b820191906000526020600020905b81548152906001019060200180831161078d57829003601f168201915b5050505050815260200160028201548152602001600382015481526020016004820160009054906101000a900473ffffffffffffffffffffffffffffffffffffffff1673ffffffffffffffffffffffffffffffffffffffff1673ffffffffffffffffffffffffffffffffffffffff1681526020016005820160009054906101000a900473ffffffffffffffffffffffffffffffffffffffff1673ffffffffffffffffffffffffffffffffffffffff1673ffffffffffffffffffffffffffffffffffffffff1681526020016005820160149054906101000a900460ff16600181111561089857610897611b37565b5b60018111156108aa576108a9611b37565b5b815250509050600160009054906101000a900473ffffffffffffffffffffffffffffffffffffffff1673ffffffffffffffffffffffffffffffffffffffff166323b872dd33836080015184604001516040518463ffffffff1660e01b815260040161091793929190611716565b602060405180830381600087803b15801561093157600080fd5b505af1158015610945573d6000803e3d6000fd5b505050506040513d601f19601f8201168201806040525081019061096991906112c5565b5060016003600084815260200190815260200160002060050160146101000a81548160ff021916908360018111156109a4576109a3611b37565b5b0217905550336003600084815260200190815260200160002060050160006101000a81548173ffffffffffffffffffffffffffffffffffffffff021916908373ffffffffffffffffffffffffffffffffffffffff1602179055506000604051806080016040528083600001518152602001836040015181526020018360600151815260200183602001518152509050600460003373ffffffffffffffffffffffffffffffffffffffff1673ffffffffffffffffffffffffffffffffffffffff1681526020019081526020016000208190806001815401808255809150506001900390600052602060002090600402016000909190919091506000820151816000019080519060200190610ab8929190611146565b5060208201518160010155604082015181600201556060820151816003019080519060200190610ae9929190611146565b505050505050565b60008060009054906101000a900473ffffffffffffffffffffffffffffffffffffffff16905090565b6060600060058054905067ffffffffffffffff811115610b3d57610b3c611bc4565b5b604051908082528060200260200182016040528015610b6b5781602001602082028036833780820191505090505b50905060005b600580549050811015610c1f576003600060058381548110610b9657610b95611b95565b5b906000526020600020906004020160020154815260200190815260200160002060050160149054906101000a900460ff16828281518110610bda57610bd9611b95565b5b60200260200101906001811115610bf457610bf3611b37565b5b90816001811115610c0857610c07611b37565b5b815250508080610c1790611abf565b915050610b71565b508091505090565b6060600460003373ffffffffffffffffffffffffffffffffffffffff1673ffffffffffffffffffffffffffffffffffffffff168152602001908152602001600020805480602002602001604051908101604052809291908181526020016000905b82821015610df25783829060005260206000209060040201604051806080016040529081600082018054610cbb90611a5c565b80601f0160208091040260200160405190810160405280929190818152602001828054610ce790611a5c565b8015610d345780601f10610d0957610100808354040283529160200191610d34565b820191906000526020600020905b815481529060010190602001808311610d1757829003601f168201915b505050505081526020016001820154815260200160028201548152602001600382018054610d6190611a5c565b80601f0160208091040260200160405190810160405280929190818152602001828054610d8d90611a5c565b8015610dda5780601f10610daf57610100808354040283529160200191610dda565b820191906000526020600020905b815481529060010190602001808311610dbd57829003601f168201915b50505050508152505081526020019060010190610c88565b50505050905090565b60025481565b610e0961107a565b73ffffffffffffffffffffffffffffffffffffffff16610e27610af1565b73ffffffffffffffffffffffffffffffffffffffff1614610e7d576040517f08c379a0000000000000000000000000000000000000000000000000000000008152600401610e749061180e565b60405180910390fd5b600073ffffffffffffffffffffffffffffffffffffffff168173ffffffffffffffffffffffffffffffffffffffff161415610eed576040517f08c379a0000000000000000000000000000000000000000000000000000000008152600401610ee4906117ce565b60405180910390fd5b610ef681611082565b50565b60606005805480602002602001604051908101604052809291908181526020016000905b8282101561104b5783829060005260206000209060040201604051806080016040529081600082018054610f5090611a5c565b80601f0160208091040260200160405190810160405280929190818152602001828054610f7c90611a5c565b8015610fc95780601f10610f9e57610100808354040283529160200191610fc9565b820191906000526020600020905b815481529060010190602001808311610fac57829003601f168201915b5050505050815260200160018201548152602001600282015481526020016003820160009054906101000a900473ffffffffffffffffffffffffffffffffffffffff1673ffffffffffffffffffffffffffffffffffffffff1673ffffffffffffffffffffffffffffffffffffffff168152505081526020019060010190610f1d565b50505050905090565b600160009054906101000a900473ffffffffffffffffffffffffffffffffffffffff1681565b600033905090565b60008060009054906101000a900473ffffffffffffffffffffffffffffffffffffffff169050816000806101000a81548173ffffffffffffffffffffffffffffffffffffffff021916908373ffffffffffffffffffffffffffffffffffffffff1602179055508173ffffffffffffffffffffffffffffffffffffffff168173ffffffffffffffffffffffffffffffffffffffff167f8be0079c531659141344cd1fd0a4f28419497f9722a3daafe3b4186f6b6457e060405160405180910390a35050565b82805461115290611a5c565b90600052602060002090601f01602090048101928261117457600085556111bb565b82601f1061118d57805160ff19168380011785556111bb565b828001600101855582156111bb579182015b828111156111ba57825182559160200191906001019061119f565b5b5090506111c891906111cc565b5090565b5b808211156111e55760008160009055506001016111cd565b5090565b60006111fc6111f78461186e565b611849565b90508281526020810184848401111561121857611217611bf8565b5b611223848285611a1a565b509392505050565b60008135905061123a81611ccd565b92915050565b60008151905061124f81611ce4565b92915050565b600082601f83011261126a57611269611bf3565b5b813561127a8482602086016111e9565b91505092915050565b60008135905061129281611cfb565b92915050565b6000602082840312156112ae576112ad611c02565b5b60006112bc8482850161122b565b91505092915050565b6000602082840312156112db576112da611c02565b5b60006112e984828501611240565b91505092915050565b60008060006060848603121561130b5761130a611c02565b5b600084013567ffffffffffffffff81111561132957611328611bfd565b5b61133586828701611255565b935050602084013567ffffffffffffffff81111561135657611355611bfd565b5b61136286828701611255565b925050604061137386828701611283565b9150509250925092565b60006020828403121561139357611392611c02565b5b60006113a184828501611283565b91505092915050565b60006113b6838361155f565b60208301905092915050565b60006113ce8383611610565b905092915050565b60006113e2838361167a565b905092915050565b6113f381611977565b82525050565b61140281611977565b82525050565b6000611413826118cf565b61141d8185611944565b93506114288361189f565b8060005b8381101561145957815161144088826113aa565b975061144b836118fb565b92505060018101905061142c565b5085935050505092915050565b6000611471826118da565b61147b8185611922565b93508360208202850161148d856118af565b8060005b858110156114c957848403895281516114aa85826113c2565b94506114b583611908565b925060208a01995050600181019050611491565b50829750879550505050505092915050565b60006114e6826118e5565b6114f08185611933565b935083602082028501611502856118bf565b8060005b8581101561153e578484038952815161151f85826113d6565b945061152a83611915565b925060208a01995050600181019050611506565b50829750879550505050505092915050565b611559816119d2565b82525050565b611568816119e4565b82525050565b6000611579826118f0565b6115838185611955565b9350611593818560208601611a29565b61159c81611c07565b840191505092915050565b60006115b4602683611966565b91506115bf82611c18565b604082019050919050565b60006115d7601e83611966565b91506115e282611c67565b602082019050919050565b60006115fa602083611966565b915061160582611c90565b602082019050919050565b6000608083016000830151848203600086015261162d828261156e565b915050602083015161164260208601826116dd565b50604083015161165560408601826116dd565b506060830151848203606086015261166d828261156e565b9150508091505092915050565b60006080830160008301518482036000860152611697828261156e565b91505060208301516116ac60208601826116dd565b5060408301516116bf60408601826116dd565b5060608301516116d260608601826113ea565b508091505092915050565b6116e6816119c8565b82525050565b6116f5816119c8565b82525050565b600060208201905061171060008301846113f9565b92915050565b600060608201905061172b60008301866113f9565b61173860208301856113f9565b61174560408301846116ec565b949350505050565b600060208201905081810360008301526117678184611408565b905092915050565b600060208201905081810360008301526117898184611466565b905092915050565b600060208201905081810360008301526117ab81846114db565b905092915050565b60006020820190506117c86000830184611550565b92915050565b600060208201905081810360008301526117e7816115a7565b9050919050565b60006020820190508181036000830152611807816115ca565b9050919050565b60006020820190508181036000830152611827816115ed565b9050919050565b600060208201905061184360008301846116ec565b92915050565b6000611853611864565b905061185f8282611a8e565b919050565b6000604051905090565b600067ffffffffffffffff82111561188957611888611bc4565b5b61189282611c07565b9050602081019050919050565b6000819050602082019050919050565b6000819050602082019050919050565b6000819050602082019050919050565b600081519050919050565b600081519050919050565b600081519050919050565b600081519050919050565b6000602082019050919050565b6000602082019050919050565b6000602082019050919050565b600082825260208201905092915050565b600082825260208201905092915050565b600082825260208201905092915050565b600082825260208201905092915050565b600082825260208201905092915050565b6000611982826119a8565b9050919050565b60008115159050919050565b60008190506119a382611cb9565b919050565b600073ffffffffffffffffffffffffffffffffffffffff82169050919050565b6000819050919050565b60006119dd826119f6565b9050919050565b60006119ef82611995565b9050919050565b6000611a0182611a08565b9050919050565b6000611a13826119a8565b9050919050565b82818337600083830152505050565b60005b83811015611a47578082015181840152602081019050611a2c565b83811115611a56576000848401525b50505050565b60006002820490506001821680611a7457607f821691505b60208210811415611a8857611a87611b66565b5b50919050565b611a9782611c07565b810181811067ffffffffffffffff82111715611ab657611ab5611bc4565b5b80604052505050565b6000611aca826119c8565b91507fffffffffffffffffffffffffffffffffffffffffffffffffffffffffffffffff821415611afd57611afc611b08565b5b600182019050919050565b7f4e487b7100000000000000000000000000000000000000000000000000000000600052601160045260246000fd5b7f4e487b7100000000000000000000000000000000000000000000000000000000600052602160045260246000fd5b7f4e487b7100000000000000000000000000000000000000000000000000000000600052602260045260246000fd5b7f4e487b7100000000000000000000000000000000000000000000000000000000600052603260045260246000fd5b7f4e487b7100000000000000000000000000000000000000000000000000000000600052604160045260246000fd5b600080fd5b600080fd5b600080fd5b600080fd5b6000601f19601f8301169050919050565b7f4f776e61626c653a206e6577206f776e657220697320746865207a65726f206160008201527f6464726573730000000000000000000000000000000000000000000000000000602082015250565b7f546869732070726f6475637420697320616c726561647920626f756768740000600082015250565b7f4f776e61626c653a2063616c6c6572206973206e6f7420746865206f776e6572600082015250565b60028110611cca57611cc9611b37565b5b50565b611cd681611977565b8114611ce157600080fd5b50565b611ced81611989565b8114611cf857600080fd5b50565b611d04816119c8565b8114611d0f57600080fd5b5056fea26469706673582212205c61c3bbc47b599ca41c42ec2364ab5abdb4a07292ab49f558c7f98a0dbb0fd764736f6c63430008070033",
  "immutableReferences": {},
  "source": "//SPDX-License-Identifier: UNLICENSED\npragma solidity ^0.8.0;\n\nimport \"@openzeppelin/contracts/token/ERC20/ERC20.sol\";\nimport \"@openzeppelin/contracts/access/Ownable.sol\";\nimport \"@openzeppelin/contracts/utils/math/SafeMath.sol\";\n\ncontract ProductBuy is Ownable {\n    \n    using SafeMath for uint;\n    \n    ERC20 public token;\n    uint public taxTolerance;\n    \n    constructor(address _tokenAddress, uint _taxTolerance) {\n        token = ERC20(_tokenAddress);\n        taxTolerance = _taxTolerance;\n    }\n    \n    enum ProductStatus{ Unsold, Sold }\n    \n    struct Product {\n        string productName;\n        string productLink;\n        uint productPrice;\n        uint productId;\n        address productSeller;\n        address productOwner;\n        ProductStatus status;\n    }\n\n    struct ProductInfo {\n        string productName;\n        uint productPrice;\n        uint productId;\n        address productSeller;        \n    } \n\n    struct BoughtProduct {\n        string productName;\n        uint productPrice;\n        uint productId;      \n        string productLink;      \n    } \n    \n    mapping(uint => Product) productsMapping;\n    mapping(address => BoughtProduct[]) myProducts;\n    ProductInfo[] products;\n    \n    \n    function changeToken(address _newToken) public {\n        token = ERC20(_newToken);\n    }\n    \n    function listProduct(string memory _productName, string memory _productLink, uint _productPrice) public {\n        Product memory newProduct = Product(_productName, _productLink, _productPrice, products.length, msg.sender, msg.sender, ProductStatus.Unsold);\n        ProductInfo memory productInfo = ProductInfo(_productName, _productPrice, products.length, msg.sender);\n        productsMapping[products.length] = newProduct;\n        products.push(productInfo);\n    }\n    \n    function buyProduct(uint productId) public {\n        require(productsMapping[productId].status == ProductStatus.Unsold, \"This product is already bought\");\n        Product memory product = productsMapping[productId];\n        // uint tax = product.productPrice.mul(taxTolerance).div(100);\n        // uint productPriceTax = product.productPrice.sub(tax);\n        token.transferFrom(msg.sender, product.productSeller, product.productPrice);\n        productsMapping[productId].status = ProductStatus.Sold;\n        productsMapping[productId].productOwner = msg.sender;\n\n        BoughtProduct memory boughtProduct = BoughtProduct(product.productName, product.productPrice, product.productId, product.productLink);\n        myProducts[msg.sender].push(boughtProduct);\n    }\n\n    function viewProducts() public view returns(ProductInfo[] memory) {\n        return products;\n    }\n\n    function setTaxTolerance(uint _newTaxTolerance) public onlyOwner {\n        taxTolerance = _newTaxTolerance;\n    }\n\n    function getBoughtProducts() public view returns (BoughtProduct[] memory){\n        return myProducts[msg.sender];\n    }\n\n    function getProductStatuses() public view returns(ProductStatus[] memory) {\n        ProductStatus[] memory statuses = new ProductStatus[](products.length);\n        for(uint i = 0; i < products.length; i++) {\n            statuses[i] = productsMapping[products[i].productId].status;\n        }\n        return statuses;\n    }\n    \n}",
  "sourcePath": "/Users/israeladelaja/Desktop/Product DApp/contracts/ProductBuy.sol",
  "compiler": {
    "name": "solc",
    "version": "0.8.7+commit.e28d00a7.Emscripten.clang"
  },
  "schemaVersion": "3.4.2",
  "updatedAt": "2021-09-05T02:00:27.455Z",
  "networkType": "ethereum",
  "devdoc": {
    "kind": "dev",
    "methods": {
      "owner()": {
        "details": "Returns the address of the current owner."
      },
      "renounceOwnership()": {
        "details": "Leaves the contract without owner. It will not be possible to call `onlyOwner` functions anymore. Can only be called by the current owner. NOTE: Renouncing ownership will leave the contract without an owner, thereby removing any functionality that is only available to the owner."
      },
      "transferOwnership(address)": {
        "details": "Transfers ownership of the contract to a new account (`newOwner`). Can only be called by the current owner."
      }
    },
    "version": 1
  },
  "userdoc": {
    "kind": "user",
    "methods": {},
    "version": 1
  }
}