{
  "contractName": "ProductBuy",
  "abi": [
    {
      "inputs": [
        {
          "internalType": "address",
          "name": "_tokenAddress",
          "type": "address"
        },
        {
          "internalType": "uint256",
          "name": "_taxTolerance",
          "type": "uint256"
        }
      ],
      "stateMutability": "nonpayable",
      "type": "constructor"
    },
    {
      "anonymous": false,
      "inputs": [
        {
          "indexed": true,
          "internalType": "address",
          "name": "previousOwner",
          "type": "address"
        },
        {
          "indexed": true,
          "internalType": "address",
          "name": "newOwner",
          "type": "address"
        }
      ],
      "name": "OwnershipTransferred",
      "type": "event"
    },
    {
      "inputs": [],
      "name": "owner",
      "outputs": [
        {
          "internalType": "address",
          "name": "",
          "type": "address"
        }
      ],
      "stateMutability": "view",
      "type": "function",
      "constant": true
    },
    {
      "inputs": [],
      "name": "renounceOwnership",
      "outputs": [],
      "stateMutability": "nonpayable",
      "type": "function"
    },
    {
      "inputs": [],
      "name": "taxTolerance",
      "outputs": [
        {
          "internalType": "uint256",
          "name": "",
          "type": "uint256"
        }
      ],
      "stateMutability": "view",
      "type": "function",
      "constant": true
    },
    {
      "inputs": [],
      "name": "token",
      "outputs": [
        {
          "internalType": "contract ERC20",
          "name": "",
          "type": "address"
        }
      ],
      "stateMutability": "view",
      "type": "function",
      "constant": true
    },
    {
      "inputs": [
        {
          "internalType": "address",
          "name": "newOwner",
          "type": "address"
        }
      ],
      "name": "transferOwnership",
      "outputs": [],
      "stateMutability": "nonpayable",
      "type": "function"
    },
    {
      "inputs": [
        {
          "internalType": "address",
          "name": "_newToken",
          "type": "address"
        }
      ],
      "name": "changeToken",
      "outputs": [],
      "stateMutability": "nonpayable",
      "type": "function"
    },
    {
      "inputs": [
        {
          "internalType": "string",
          "name": "_productName",
          "type": "string"
        },
        {
          "internalType": "string",
          "name": "_productLink",
          "type": "string"
        },
        {
          "internalType": "uint256",
          "name": "_productPrice",
          "type": "uint256"
        },
        {
          "internalType": "string",
          "name": "_productImage",
          "type": "string"
        },
        {
          "internalType": "string",
          "name": "_productDescription",
          "type": "string"
        }
      ],
      "name": "listProduct",
      "outputs": [],
      "stateMutability": "nonpayable",
      "type": "function"
    },
    {
      "inputs": [
        {
          "internalType": "uint256",
          "name": "productId",
          "type": "uint256"
        }
      ],
      "name": "buyProduct",
      "outputs": [],
      "stateMutability": "nonpayable",
      "type": "function"
    },
    {
      "inputs": [],
      "name": "viewProducts",
      "outputs": [
        {
          "components": [
            {
              "internalType": "string",
              "name": "productName",
              "type": "string"
            },
            {
              "internalType": "uint256",
              "name": "productPrice",
              "type": "uint256"
            },
            {
              "internalType": "uint256",
              "name": "productId",
              "type": "uint256"
            },
            {
              "internalType": "string",
              "name": "productDescription",
              "type": "string"
            },
            {
              "internalType": "string",
              "name": "productImage",
              "type": "string"
            },
            {
              "internalType": "address",
              "name": "productSeller",
              "type": "address"
            }
          ],
          "internalType": "struct ProductBuy.ProductInfo[]",
          "name": "",
          "type": "tuple[]"
        }
      ],
      "stateMutability": "view",
      "type": "function",
      "constant": true
    },
    {
      "inputs": [
        {
          "internalType": "uint256",
          "name": "_newTaxTolerance",
          "type": "uint256"
        }
      ],
      "name": "setTaxTolerance",
      "outputs": [],
      "stateMutability": "nonpayable",
      "type": "function"
    },
    {
      "inputs": [],
      "name": "getBoughtProducts",
      "outputs": [
        {
          "components": [
            {
              "internalType": "string",
              "name": "productName",
              "type": "string"
            },
            {
              "internalType": "uint256",
              "name": "productPrice",
              "type": "uint256"
            },
            {
              "internalType": "uint256",
              "name": "productId",
              "type": "uint256"
            },
            {
              "internalType": "string",
              "name": "productDescription",
              "type": "string"
            },
            {
              "internalType": "string",
              "name": "productImage",
              "type": "string"
            },
            {
              "internalType": "string",
              "name": "productLink",
              "type": "string"
            }
          ],
          "internalType": "struct ProductBuy.BoughtProduct[]",
          "name": "",
          "type": "tuple[]"
        }
      ],
      "stateMutability": "view",
      "type": "function",
      "constant": true
    },
    {
      "inputs": [],
      "name": "getProductStatuses",
      "outputs": [
        {
          "internalType": "enum ProductBuy.ProductStatus[]",
          "name": "",
          "type": "uint8[]"
        }
      ],
      "stateMutability": "view",
      "type": "function",
      "constant": true
    }
  ],
  "bytecode": "0x60806040523480156200001157600080fd5b50604051620024ca380380620024ca8339818101604052810190620000379190620001a1565b620000576200004b620000a760201b60201c565b620000af60201b60201c565b81600160006101000a81548173ffffffffffffffffffffffffffffffffffffffff021916908373ffffffffffffffffffffffffffffffffffffffff1602179055508060028190555050506200025f565b600033905090565b60008060009054906101000a900473ffffffffffffffffffffffffffffffffffffffff169050816000806101000a81548173ffffffffffffffffffffffffffffffffffffffff021916908373ffffffffffffffffffffffffffffffffffffffff1602179055508173ffffffffffffffffffffffffffffffffffffffff168173ffffffffffffffffffffffffffffffffffffffff167f8be0079c531659141344cd1fd0a4f28419497f9722a3daafe3b4186f6b6457e060405160405180910390a35050565b60008151905062000184816200022b565b92915050565b6000815190506200019b8162000245565b92915050565b60008060408385031215620001bb57620001ba62000226565b5b6000620001cb8582860162000173565b9250506020620001de858286016200018a565b9150509250929050565b6000620001f582620001fc565b9050919050565b600073ffffffffffffffffffffffffffffffffffffffff82169050919050565b6000819050919050565b600080fd5b6200023681620001e8565b81146200024257600080fd5b50565b62000250816200021c565b81146200025c57600080fd5b50565b61225b806200026f6000396000f3fe608060405234801561001057600080fd5b50600436106100b45760003560e01c80638ddddf04116100715780638ddddf0414610151578063c5173fd81461016f578063d37078731461018d578063f2fde38b146101ab578063f9f24da1146101c7578063fc0c546a146101e5576100b4565b806324f7a0be146100b957806366829b16146100d5578063715018a6146100f15780637827f81f146100fb5780638642269e146101175780638da5cb5b14610133575b600080fd5b6100d360048036038101906100ce9190611828565b610203565b005b6100ef60048036038101906100ea91906116e3565b610289565b005b6100f96102cd565b005b6101156004803603810190610110919061173d565b610355565b005b610131600480360381019061012c9190611828565b610675565b005b61013b610cf4565b6040516101489190611c0e565b60405180910390f35b610159610d1d565b6040516101669190611c60565b60405180910390f35b610177610e2a565b6040516101849190611c82565b60405180910390f35b610195611122565b6040516101a29190611d41565b60405180910390f35b6101c560048036038101906101c091906116e3565b611128565b005b6101cf611220565b6040516101dc9190611ca4565b60405180910390f35b6101ed61149f565b6040516101fa9190611cc6565b60405180910390f35b61020b6114c5565b73ffffffffffffffffffffffffffffffffffffffff16610229610cf4565b73ffffffffffffffffffffffffffffffffffffffff161461027f576040517f08c379a000000000000000000000000000000000000000000000000000000000815260040161027690611d21565b60405180910390fd5b8060028190555050565b80600160006101000a81548173ffffffffffffffffffffffffffffffffffffffff021916908373ffffffffffffffffffffffffffffffffffffffff16021790555050565b6102d56114c5565b73ffffffffffffffffffffffffffffffffffffffff166102f3610cf4565b73ffffffffffffffffffffffffffffffffffffffff1614610349576040517f08c379a000000000000000000000000000000000000000000000000000000000815260040161034090611d21565b60405180910390fd5b61035360006114cd565b565b600060405180610120016040528087815260200186815260200185815260200184815260200183815260200160058054905081526020013373ffffffffffffffffffffffffffffffffffffffff1681526020013373ffffffffffffffffffffffffffffffffffffffff168152602001600060018111156103d8576103d761204a565b5b815250905060006040518060c0016040528088815260200186815260200160058054905081526020018481526020018581526020013373ffffffffffffffffffffffffffffffffffffffff16815250905081600360006005805490508152602001908152602001600020600082015181600001908051906020019061045e929190611591565b50602082015181600101908051906020019061047b929190611591565b506040820151816002015560608201518160030190805190602001906104a2929190611591565b5060808201518160040190805190602001906104bf929190611591565b5060a0820151816005015560c08201518160060160006101000a81548173ffffffffffffffffffffffffffffffffffffffff021916908373ffffffffffffffffffffffffffffffffffffffff16021790555060e08201518160070160006101000a81548173ffffffffffffffffffffffffffffffffffffffff021916908373ffffffffffffffffffffffffffffffffffffffff1602179055506101008201518160070160146101000a81548160ff021916908360018111156105845761058361204a565b5b0217905550905050600581908060018154018082558091505060019003906000526020600020906006020160009091909190915060008201518160000190805190602001906105d4929190611591565b5060208201518160010155604082015181600201556060820151816003019080519060200190610605929190611591565b506080820151816004019080519060200190610622929190611591565b5060a08201518160050160006101000a81548173ffffffffffffffffffffffffffffffffffffffff021916908373ffffffffffffffffffffffffffffffffffffffff160217905550505050505050505050565b600060018111156106895761068861204a565b5b6003600083815260200190815260200160002060070160149054906101000a900460ff1660018111156106bf576106be61204a565b5b146106ff576040517f08c379a00000000000000000000000000000000000000000000000000000000081526004016106f690611d01565b60405180910390fd5b6000600360008381526020019081526020016000206040518061012001604052908160008201805461073090611f6f565b80601f016020809104026020016040519081016040528092919081815260200182805461075c90611f6f565b80156107a95780601f1061077e576101008083540402835291602001916107a9565b820191906000526020600020905b81548152906001019060200180831161078c57829003601f168201915b505050505081526020016001820180546107c290611f6f565b80601f01602080910402602001604051908101604052809291908181526020018280546107ee90611f6f565b801561083b5780601f106108105761010080835404028352916020019161083b565b820191906000526020600020905b81548152906001019060200180831161081e57829003601f168201915b505050505081526020016002820154815260200160038201805461085e90611f6f565b80601f016020809104026020016040519081016040528092919081815260200182805461088a90611f6f565b80156108d75780601f106108ac576101008083540402835291602001916108d7565b820191906000526020600020905b8154815290600101906020018083116108ba57829003601f168201915b505050505081526020016004820180546108f090611f6f565b80601f016020809104026020016040519081016040528092919081815260200182805461091c90611f6f565b80156109695780601f1061093e57610100808354040283529160200191610969565b820191906000526020600020905b81548152906001019060200180831161094c57829003601f168201915b50505050508152602001600582015481526020016006820160009054906101000a900473ffffffffffffffffffffffffffffffffffffffff1673ffffffffffffffffffffffffffffffffffffffff1673ffffffffffffffffffffffffffffffffffffffff1681526020016007820160009054906101000a900473ffffffffffffffffffffffffffffffffffffffff1673ffffffffffffffffffffffffffffffffffffffff1673ffffffffffffffffffffffffffffffffffffffff1681526020016007820160149054906101000a900460ff166001811115610a4d57610a4c61204a565b5b6001811115610a5f57610a5e61204a565b5b815250509050600160009054906101000a900473ffffffffffffffffffffffffffffffffffffffff1673ffffffffffffffffffffffffffffffffffffffff166323b872dd338360c0015184604001516040518463ffffffff1660e01b8152600401610acc93929190611c29565b602060405180830381600087803b158015610ae657600080fd5b505af1158015610afa573d6000803e3d6000fd5b505050506040513d601f19601f82011682018060405250810190610b1e9190611710565b5060016003600084815260200190815260200160002060070160146101000a81548160ff02191690836001811115610b5957610b5861204a565b5b0217905550336003600084815260200190815260200160002060070160006101000a81548173ffffffffffffffffffffffffffffffffffffffff021916908373ffffffffffffffffffffffffffffffffffffffff16021790555060006040518060c0016040528083600001518152602001836040015181526020018360a001518152602001836080015181526020018360600151815260200183602001518152509050600460003373ffffffffffffffffffffffffffffffffffffffff1673ffffffffffffffffffffffffffffffffffffffff1681526020019081526020016000208190806001815401808255809150506001900390600052602060002090600602016000909190919091506000820151816000019080519060200190610c81929190611591565b5060208201518160010155604082015181600201556060820151816003019080519060200190610cb2929190611591565b506080820151816004019080519060200190610ccf929190611591565b5060a0820151816005019080519060200190610cec929190611591565b505050505050565b60008060009054906101000a900473ffffffffffffffffffffffffffffffffffffffff16905090565b6060600060058054905067ffffffffffffffff811115610d4057610d3f6120d7565b5b604051908082528060200260200182016040528015610d6e5781602001602082028036833780820191505090505b50905060005b600580549050811015610e22576003600060058381548110610d9957610d986120a8565b5b906000526020600020906006020160020154815260200190815260200160002060070160149054906101000a900460ff16828281518110610ddd57610ddc6120a8565b5b60200260200101906001811115610df757610df661204a565b5b90816001811115610e0b57610e0a61204a565b5b815250508080610e1a90611fd2565b915050610d74565b508091505090565b6060600460003373ffffffffffffffffffffffffffffffffffffffff1673ffffffffffffffffffffffffffffffffffffffff168152602001908152602001600020805480602002602001604051908101604052809291908181526020016000905b8282101561111957838290600052602060002090600602016040518060c0016040529081600082018054610ebe90611f6f565b80601f0160208091040260200160405190810160405280929190818152602001828054610eea90611f6f565b8015610f375780601f10610f0c57610100808354040283529160200191610f37565b820191906000526020600020905b815481529060010190602001808311610f1a57829003601f168201915b505050505081526020016001820154815260200160028201548152602001600382018054610f6490611f6f565b80601f0160208091040260200160405190810160405280929190818152602001828054610f9090611f6f565b8015610fdd5780601f10610fb257610100808354040283529160200191610fdd565b820191906000526020600020905b815481529060010190602001808311610fc057829003601f168201915b50505050508152602001600482018054610ff690611f6f565b80601f016020809104026020016040519081016040528092919081815260200182805461102290611f6f565b801561106f5780601f106110445761010080835404028352916020019161106f565b820191906000526020600020905b81548152906001019060200180831161105257829003601f168201915b5050505050815260200160058201805461108890611f6f565b80601f01602080910402602001604051908101604052809291908181526020018280546110b490611f6f565b80156111015780601f106110d657610100808354040283529160200191611101565b820191906000526020600020905b8154815290600101906020018083116110e457829003601f168201915b50505050508152505081526020019060010190610e8b565b50505050905090565b60025481565b6111306114c5565b73ffffffffffffffffffffffffffffffffffffffff1661114e610cf4565b73ffffffffffffffffffffffffffffffffffffffff16146111a4576040517f08c379a000000000000000000000000000000000000000000000000000000000815260040161119b90611d21565b60405180910390fd5b600073ffffffffffffffffffffffffffffffffffffffff168173ffffffffffffffffffffffffffffffffffffffff161415611214576040517f08c379a000000000000000000000000000000000000000000000000000000000815260040161120b90611ce1565b60405180910390fd5b61121d816114cd565b50565b60606005805480602002602001604051908101604052809291908181526020016000905b8282101561149657838290600052602060002090600602016040518060c001604052908160008201805461127790611f6f565b80601f01602080910402602001604051908101604052809291908181526020018280546112a390611f6f565b80156112f05780601f106112c5576101008083540402835291602001916112f0565b820191906000526020600020905b8154815290600101906020018083116112d357829003601f168201915b50505050508152602001600182015481526020016002820154815260200160038201805461131d90611f6f565b80601f016020809104026020016040519081016040528092919081815260200182805461134990611f6f565b80156113965780601f1061136b57610100808354040283529160200191611396565b820191906000526020600020905b81548152906001019060200180831161137957829003601f168201915b505050505081526020016004820180546113af90611f6f565b80601f01602080910402602001604051908101604052809291908181526020018280546113db90611f6f565b80156114285780601f106113fd57610100808354040283529160200191611428565b820191906000526020600020905b81548152906001019060200180831161140b57829003601f168201915b505050505081526020016005820160009054906101000a900473ffffffffffffffffffffffffffffffffffffffff1673ffffffffffffffffffffffffffffffffffffffff1673ffffffffffffffffffffffffffffffffffffffff168152505081526020019060010190611244565b50505050905090565b600160009054906101000a900473ffffffffffffffffffffffffffffffffffffffff1681565b600033905090565b60008060009054906101000a900473ffffffffffffffffffffffffffffffffffffffff169050816000806101000a81548173ffffffffffffffffffffffffffffffffffffffff021916908373ffffffffffffffffffffffffffffffffffffffff1602179055508173ffffffffffffffffffffffffffffffffffffffff168173ffffffffffffffffffffffffffffffffffffffff167f8be0079c531659141344cd1fd0a4f28419497f9722a3daafe3b4186f6b6457e060405160405180910390a35050565b82805461159d90611f6f565b90600052602060002090601f0160209004810192826115bf5760008555611606565b82601f106115d857805160ff1916838001178555611606565b82800160010185558215611606579182015b828111156116055782518255916020019190600101906115ea565b5b5090506116139190611617565b5090565b5b80821115611630576000816000905550600101611618565b5090565b600061164761164284611d81565b611d5c565b9050828152602081018484840111156116635761166261210b565b5b61166e848285611f2d565b509392505050565b600081359050611685816121e0565b92915050565b60008151905061169a816121f7565b92915050565b600082601f8301126116b5576116b4612106565b5b81356116c5848260208601611634565b91505092915050565b6000813590506116dd8161220e565b92915050565b6000602082840312156116f9576116f8612115565b5b600061170784828501611676565b91505092915050565b60006020828403121561172657611725612115565b5b60006117348482850161168b565b91505092915050565b600080600080600060a0868803121561175957611758612115565b5b600086013567ffffffffffffffff81111561177757611776612110565b5b611783888289016116a0565b955050602086013567ffffffffffffffff8111156117a4576117a3612110565b5b6117b0888289016116a0565b94505060406117c1888289016116ce565b935050606086013567ffffffffffffffff8111156117e2576117e1612110565b5b6117ee888289016116a0565b925050608086013567ffffffffffffffff81111561180f5761180e612110565b5b61181b888289016116a0565b9150509295509295909350565b60006020828403121561183e5761183d612115565b5b600061184c848285016116ce565b91505092915050565b60006118618383611a0a565b60208301905092915050565b60006118798383611abb565b905092915050565b600061188d8383611b59565b905092915050565b61189e81611e8a565b82525050565b6118ad81611e8a565b82525050565b60006118be82611de2565b6118c88185611e57565b93506118d383611db2565b8060005b838110156119045781516118eb8882611855565b97506118f683611e0e565b9250506001810190506118d7565b5085935050505092915050565b600061191c82611ded565b6119268185611e35565b93508360208202850161193885611dc2565b8060005b858110156119745784840389528151611955858261186d565b945061196083611e1b565b925060208a0199505060018101905061193c565b50829750879550505050505092915050565b600061199182611df8565b61199b8185611e46565b9350836020820285016119ad85611dd2565b8060005b858110156119e957848403895281516119ca8582611881565b94506119d583611e28565b925060208a019950506001810190506119b1565b50829750879550505050505092915050565b611a0481611ee5565b82525050565b611a1381611ef7565b82525050565b6000611a2482611e03565b611a2e8185611e68565b9350611a3e818560208601611f3c565b611a478161211a565b840191505092915050565b6000611a5f602683611e79565b9150611a6a8261212b565b604082019050919050565b6000611a82601e83611e79565b9150611a8d8261217a565b602082019050919050565b6000611aa5602083611e79565b9150611ab0826121a3565b602082019050919050565b600060c0830160008301518482036000860152611ad88282611a19565b9150506020830151611aed6020860182611bf0565b506040830151611b006040860182611bf0565b5060608301518482036060860152611b188282611a19565b91505060808301518482036080860152611b328282611a19565b91505060a083015184820360a0860152611b4c8282611a19565b9150508091505092915050565b600060c0830160008301518482036000860152611b768282611a19565b9150506020830151611b8b6020860182611bf0565b506040830151611b9e6040860182611bf0565b5060608301518482036060860152611bb68282611a19565b91505060808301518482036080860152611bd08282611a19565b91505060a0830151611be560a0860182611895565b508091505092915050565b611bf981611edb565b82525050565b611c0881611edb565b82525050565b6000602082019050611c2360008301846118a4565b92915050565b6000606082019050611c3e60008301866118a4565b611c4b60208301856118a4565b611c586040830184611bff565b949350505050565b60006020820190508181036000830152611c7a81846118b3565b905092915050565b60006020820190508181036000830152611c9c8184611911565b905092915050565b60006020820190508181036000830152611cbe8184611986565b905092915050565b6000602082019050611cdb60008301846119fb565b92915050565b60006020820190508181036000830152611cfa81611a52565b9050919050565b60006020820190508181036000830152611d1a81611a75565b9050919050565b60006020820190508181036000830152611d3a81611a98565b9050919050565b6000602082019050611d566000830184611bff565b92915050565b6000611d66611d77565b9050611d728282611fa1565b919050565b6000604051905090565b600067ffffffffffffffff821115611d9c57611d9b6120d7565b5b611da58261211a565b9050602081019050919050565b6000819050602082019050919050565b6000819050602082019050919050565b6000819050602082019050919050565b600081519050919050565b600081519050919050565b600081519050919050565b600081519050919050565b6000602082019050919050565b6000602082019050919050565b6000602082019050919050565b600082825260208201905092915050565b600082825260208201905092915050565b600082825260208201905092915050565b600082825260208201905092915050565b600082825260208201905092915050565b6000611e9582611ebb565b9050919050565b60008115159050919050565b6000819050611eb6826121cc565b919050565b600073ffffffffffffffffffffffffffffffffffffffff82169050919050565b6000819050919050565b6000611ef082611f09565b9050919050565b6000611f0282611ea8565b9050919050565b6000611f1482611f1b565b9050919050565b6000611f2682611ebb565b9050919050565b82818337600083830152505050565b60005b83811015611f5a578082015181840152602081019050611f3f565b83811115611f69576000848401525b50505050565b60006002820490506001821680611f8757607f821691505b60208210811415611f9b57611f9a612079565b5b50919050565b611faa8261211a565b810181811067ffffffffffffffff82111715611fc957611fc86120d7565b5b80604052505050565b6000611fdd82611edb565b91507fffffffffffffffffffffffffffffffffffffffffffffffffffffffffffffffff8214156120105761200f61201b565b5b600182019050919050565b7f4e487b7100000000000000000000000000000000000000000000000000000000600052601160045260246000fd5b7f4e487b7100000000000000000000000000000000000000000000000000000000600052602160045260246000fd5b7f4e487b7100000000000000000000000000000000000000000000000000000000600052602260045260246000fd5b7f4e487b7100000000000000000000000000000000000000000000000000000000600052603260045260246000fd5b7f4e487b7100000000000000000000000000000000000000000000000000000000600052604160045260246000fd5b600080fd5b600080fd5b600080fd5b600080fd5b6000601f19601f8301169050919050565b7f4f776e61626c653a206e6577206f776e657220697320746865207a65726f206160008201527f6464726573730000000000000000000000000000000000000000000000000000602082015250565b7f546869732070726f6475637420697320616c726561647920626f756768740000600082015250565b7f4f776e61626c653a2063616c6c6572206973206e6f7420746865206f776e6572600082015250565b600281106121dd576121dc61204a565b5b50565b6121e981611e8a565b81146121f457600080fd5b50565b61220081611e9c565b811461220b57600080fd5b50565b61221781611edb565b811461222257600080fd5b5056fea26469706673582212202530053bfc47d40baa3ddd4dbd715274d1650dc2bc17a5799884e23a03bfffdb64736f6c63430008070033",
  "immutableReferences": {},
  "source": "//SPDX-License-Identifier: UNLICENSED\npragma solidity ^0.8.0;\n\nimport \"@openzeppelin/contracts/token/ERC20/ERC20.sol\";\nimport \"@openzeppelin/contracts/access/Ownable.sol\";\nimport \"@openzeppelin/contracts/utils/math/SafeMath.sol\";\n\ncontract ProductBuy is Ownable {\n    \n    using SafeMath for uint;\n    \n    ERC20 public token;\n    uint public taxTolerance;\n    \n    constructor(address _tokenAddress, uint _taxTolerance) {\n        token = ERC20(_tokenAddress);\n        taxTolerance = _taxTolerance;\n    }\n    \n    enum ProductStatus{ Unsold, Sold }\n    \n    struct Product {\n        string productName;\n        string productLink;\n        uint productPrice;\n        string productImage;\n        string productDescription;\n        uint productId;\n        address productSeller;\n        address productOwner;\n        ProductStatus status;\n    }\n\n    struct ProductInfo {\n        string productName;\n        uint productPrice;\n        uint productId;\n        string productDescription;\n        string productImage;    \n        address productSeller;\n    } \n\n    struct BoughtProduct {\n        string productName;\n        uint productPrice;\n        uint productId;\n        string productDescription;\n        string productImage;      \n        string productLink;      \n    } \n    \n    mapping(uint => Product) productsMapping;\n    mapping(address => BoughtProduct[]) myProducts;\n    ProductInfo[] products;\n    \n    \n    function changeToken(address _newToken) public {\n        token = ERC20(_newToken);\n    }\n    \n    function listProduct(string memory _productName, string memory _productLink, uint _productPrice, string memory _productImage, string memory _productDescription) public {\n        Product memory newProduct = Product(_productName, _productLink, _productPrice, _productImage, _productDescription, products.length, msg.sender, msg.sender, ProductStatus.Unsold);\n        ProductInfo memory productInfo = ProductInfo(_productName, _productPrice, products.length, _productDescription, _productImage, msg.sender);\n        productsMapping[products.length] = newProduct;\n        products.push(productInfo);\n    }\n    \n    function buyProduct(uint productId) public {\n        require(productsMapping[productId].status == ProductStatus.Unsold, \"This product is already bought\");\n        Product memory product = productsMapping[productId];\n        // uint tax = product.productPrice.mul(taxTolerance).div(100);\n        // uint productPriceTax = product.productPrice.sub(tax);\n        token.transferFrom(msg.sender, product.productSeller, product.productPrice);\n        productsMapping[productId].status = ProductStatus.Sold;\n        productsMapping[productId].productOwner = msg.sender;\n\n        BoughtProduct memory boughtProduct = BoughtProduct(product.productName, product.productPrice, product.productId, product.productDescription, product.productImage, product.productLink);\n        myProducts[msg.sender].push(boughtProduct);\n    }\n\n    function viewProducts() public view returns(ProductInfo[] memory) {\n        return products;\n    }\n\n    function setTaxTolerance(uint _newTaxTolerance) public onlyOwner {\n        taxTolerance = _newTaxTolerance;\n    }\n\n    function getBoughtProducts() public view returns (BoughtProduct[] memory){\n        return myProducts[msg.sender];\n    }\n\n    function getProductStatuses() public view returns(ProductStatus[] memory) {\n        ProductStatus[] memory statuses = new ProductStatus[](products.length);\n        for(uint i = 0; i < products.length; i++) {\n            statuses[i] = productsMapping[products[i].productId].status;\n        }\n        return statuses;\n    }\n    \n}",
  "sourcePath": "/Users/israeladelaja/Desktop/Product DApp/contracts/ProductBuy.sol",
  "compiler": {
    "name": "solc",
    "version": "0.8.7+commit.e28d00a7.Emscripten.clang"
  },
  "schemaVersion": "3.4.2",
  "updatedAt": "2021-09-06T06:54:32.025Z",
  "networkType": "ethereum",
  "devdoc": {
    "kind": "dev",
    "methods": {
      "owner()": {
        "details": "Returns the address of the current owner."
      },
      "renounceOwnership()": {
        "details": "Leaves the contract without owner. It will not be possible to call `onlyOwner` functions anymore. Can only be called by the current owner. NOTE: Renouncing ownership will leave the contract without an owner, thereby removing any functionality that is only available to the owner."
      },
      "transferOwnership(address)": {
        "details": "Transfers ownership of the contract to a new account (`newOwner`). Can only be called by the current owner."
      }
    },
    "version": 1
  },
  "userdoc": {
    "kind": "user",
    "methods": {},
    "version": 1
  }
}